:020000040800F2
:10000000B814002045010008C70A0008BF0A00080C
:10001000C30A0008050700089B1300080000000041
:10002000000000000000000000000000550F000864
:10003000FB080008000000004D0B000841100008FC
:100040005F0100085F0100085F0100085F01000810
:100050005F0100085F0100085F010008FD0800085B
:10006000FF080008010900085F0100085F0100089F
:100070005F0100085F010008090700085F01000830
:100080005F0100085F0100085F0100085F010008D0
:100090005F0100085F0100085F0100080509000812
:1000A0005F0100085F0100085F0100085F010008B0
:1000B0005F010008A51000085F0100085F0100084B
:1000C0005F0100085F0100085F0100088D0C000857
:1000D000490D0008891100085F0100085F01000850
:1000E0005F0100085F0100085F0100085F01000870
:1000F0005F0100085F0100085F0100085F01000860
:100100005F0100085F0100085F0100085F0100084F
:100110005F0100085F0100085F0100085F0100083F
:100120005F0100085F0100085F0100085F0100082F
:10013000DFF80CD000F046FA0048004749260008D6
:10014000B81400200648804706480047FEE7FEE74F
:10015000FEE7FEE7FEE7FEE7FEE7FEE7FEE7FEE777
:100160004510000831010008D2B201E000F8012B6F
:10017000491EFBD270470022F6E710B513460A4627
:1001800004461946FFF7F0FF204610BD10B504469F
:1001900004E00B7800F8013B03B1491C521EF8D271
:1001A000204610BD421C10F8011B0029FBD1801A0B
:1001B0007047034611F8012B00F8012B002AF9D1F2
:1001C0001846704730B50B46014600202022012416
:1001D00009E021FA02F59D4205D303FA02F5491B15
:1001E00004FA02F52844151EA2F10102F1DC30BD2B
:1001F0002DE9F05F0546002092469B46884606465C
:10020000814640241BE0284641464746224600F0EE
:10021000FAF953465A46C01A914110D3114618466E
:10022000224600F0E1F92D1A67EB01084F462246FD
:100230000120002100F0D8F917EB00094E41201EE3
:10024000A4F10104DFDC484631462A464346BDE8B6
:10025000F09F2DE9FE4F804681EA0300C00F0C4657
:10026000009021F0004123F00045B8EB0200A941C5
:1002700005D24046214690461C460B46024623F0D6
:100280000040104347D0270DC7F30A00C3F30A51BB
:100290000290401A019040286BDAC3F3130040F437
:1002A000801B0098924620B10023D2EB030A63EB37
:1002B0000B0B01985946C0F14002504600F094F9EA
:1002C00006460D4650465946019A00F0ACF910EB2F
:1002D00008006141002487EA115284EAE7731A4357
:1002E00040D0009A62B3019A012A4FEA075215DC06
:1002F000001B61EB02014FF0004202EA0752CDE918
:100300000042001C41F5801132462B4600F0ACF94A
:1003100003B0BDE8F08F40462146F9E7001B61EBD2
:100320000201001C41F5801300185B412018A2F562
:10033000001747EB030140EAD570B6196D4111E093
:100340006D084FEA360645EAC0754FEA0752001BB2
:1003500061EB0201001C41F5801149084FEA3000B1
:100360000019514132462B4603B0BDE8F04F00F072
:100370006CB90098012240000023D0EB020263EB2D
:10038000E073009821464FEAE074B8EB000061EB9F
:100390000401E9E783F000435BE781F0004158E79F
:1003A0002DE9FE4F81EA030404F0004421F00041EE
:1003B00000944FF0000B23F0004350EA01045ED09C
:1003C00052EA03045BD0C3F30A54C1F30A552C4428
:1003D000A4F2F3340194A0FB0254C1F3130141F4DD
:1003E0008011C3F3130343F4801301FB024400FBA9
:1003F000034E840A970A44EA815447EA8357A4FBD0
:10040000076802958D0A05FB07854FEA932C04FBCC
:100410000C542705029D4FEA065847EA1637B5EBFC
:1004200008056EEB070C870E920E47EA811742EA29
:100430008312A7FB0201B6EB0B0164EB00042B0D4A
:1004400043EA0C335E1844EB1C50DA465146E7FB96
:100450000201C5F313044FEA0B3343EA14534FEA86
:100460000432019C43EA0603A4F10C040294009CAC
:10047000CDE900B400F0F8F803B0BDE8F08F00203B
:100480000146F9E72DE9F04D81EA030404F0004B41
:1004900021F0004514464FF0000A23F0004150EAD5
:1004A000050220D054EA01021DD0C5F30A570246C6
:1004B000C5F31303C1F31300C1F30A5640F48015CA
:1004C00043F48013A7EB0608101BD64608F2FD384C
:1004D00073EB050002D308F1010801E092185B41BB
:1004E000B8F1000F03DA00200146BDE8F08D0020CE
:1004F0004FF48011064684460EE0171B73EB050788
:1005000005D3121B63EB050306434CEA010C4908B3
:100510004FEA300092185B4150EA0107EDD152EAF0
:10052000030012D082EA040083EA0501084305D0E3
:10053000101BAB4106D20122002306E000224FF03F
:10054000004302E06FF0010253101AEB06004CEB7F
:10055000085110EB0A0041EB0B01BDE8F04D00F033
:1005600074B8C1F30A52C1F3130140F2FF3341F4EE
:1005700080119A4202DA00200146704740F233436C
:100580009A42A2F2334202DC524200F03CB800F040
:100590002BB8000030B5041E71F1000404DB4FF0ED
:1005A0000044404264EB0101141E73F1000405DBBA
:1005B0001C464FF00043524263EB0403994208BFCC
:1005C000904230BD064C074D06E0E06840F0010364
:1005D00094E8070098471034AC42F6D3FFF7ACFD1F
:1005E00098360008B8360008202A04DB203A00FAC2
:1005F00002F1002070479140C2F1200320FA03F37A
:10060000194390407047202A04DB203A21FA02F077
:100610000021704721FA02F3D040C2F1200291403C
:10062000084319467047202A06DBCB17203A41FAC7
:1006300002F043EAE07306E041FA02F3D040C2F16F
:100640002002914008431946704710B5141E73F1FB
:10065000000408DA401C41F1000192185B411A4382
:1006600001D120F0010010BD2DE9F04D92469B46CE
:1006700011B1B1FA81F202E0B0FA80F22032904674
:10068000FFF7B2FF04460F4640EA0A0041EA0B01B9
:1006900053465A46084313D0114653EA010019D075
:1006A000C8F140025046FFF7AEFF05460E465046E1
:1006B00059464246FFF798FF084305D0012004E061
:1006C00020463946BDE8F08D0020054346EAE07635
:1006D0002C4337430A986305E40AA0EB0800002284
:1006E000FD0A44EA47540A3002D500200146E9E7F2
:1006F000010510196941DDE9084500196941BDE8A6
:10070000F04DA2E700BFFEE710B5012004490870D4
:10071000400300F009F80021024800F013F810BD72
:10072000140000204400024000F0805111B1034940
:10073000086001E00249486070470000040402407C
:100740000000024021B1026842F00102026004E0B0
:1007500002684FF6FE731A400260704701684FF658
:10076000FE72114001600021016041608160C16042
:100770004B49884208D14A490839496841F00F017C
:10078000474A083A51608AE045491431884208D105
:1007900043490839496841F0F001414A083A51603B
:1007A0007DE03F492831884208D13D4908394968F0
:1007B00041F470613A4A083A516070E038493C317E
:1007C000884208D136490839496841F47041344AB1
:1007D000083A516063E032495031884208D13049CB
:1007E0000839496841F470212D4A083A516056E0B1
:1007F0002B496431884208D129490839496841F4B4
:100800007001274A083A516049E025497831884209
:1008100008D123490839496841F07061204A083AF3
:1008200051603CE01F49884206D1011F096841F030
:100830000F01021F116032E01A491431884208D1B9
:100840001849091F096841F0F001164A121F11608A
:1008500025E014492831884208D11249091F096846
:1008600041F470610F4A121F116018E00D493C31CC
:10087000884208D10B49091F096841F47041094AAF
:10088000121F11600BE007495031884207D105491A
:10089000091F096841F47021024A121F1160704754
:1008A00008000240080402401AB103680B430360C9
:1008B00002E003688B430360704710B500220268B2
:1008C00047F6F0739A430C6A8B6823430C69234301
:1008D0004C6923438C692343CC6923434C6A2343EB
:1008E0008C6A23431A430260CB6843600B688360C1
:1008F0004B68C36010BD41607047704770477047D8
:100900007047000010B5202000F024F8012815D110
:10091000202000F019F82021094800F0BAF868B941
:100920000821084800F0BEF820B90821054800F069
:10093000C4F803E00821034800F0BDF810BD000032
:100940000010014000140140014908607047000098
:1009500014040140014600200022074B1B6803EAF3
:100960000102054B14331B680B4013B10AB101207F
:1009700000E0002070470000000401402DE9F04134
:10098000024600250026002000230024002791F8BD
:1009900003C00CF00F0591F803C00CF0100CBCF173
:1009A000000F03D091F802C04CEA050591F800C091
:1009B000BCF1000F31D0146800202BE04FF0010C87
:1009C0000CFA00F3B1F800C00CEA03069E4220D1F5
:1009D00083004FF00F0C0CFA03F7BC4305FA03FC3D
:1009E0004CEA040491F803C0BCF1280F06D14FF083
:1009F000010C0CFA00FCC2F814C00AE091F803C024
:100A0000BCF1480F05D14FF0010C0CFA00FCC2F804
:100A100010C0401C0828D1D31460B1F800C0BCF14C
:100A2000FF0F34DD546800202EE000F1080C4FF079
:100A3000010808FA0CF3B1F800C00CEA03069E4264
:100A400021D183004FF00F0C0CFA03F7BC4305FAD9
:100A500003FC4CEA040491F803C0BCF1280F05D153
:100A600000F1080C08FA0CF8C2F8148091F803C0E1
:100A7000BCF1480F07D100F1080C4FF0010808FA4B
:100A80000CF8C2F81080401C0828CED35460BDE892
:100A9000F0810246002093680B400BB1012000E07A
:100AA0000020704702460020D3680B400BB10120A4
:100AB00000E000207047416170470161704700BF4E
:100AC000FEE700BFFEE7704770B5002100230F224C
:100AD000C47804B3154C246804F4E064C4F5E064FD
:100AE000210AC1F10403CA40447804FA03F184786E
:100AF0001440214309010E4C0678A155047804F0F6
:100B00001F050124AC4005786D11AD0005F1E0250D
:100B1000C5F8004109E0047804F01F050124AC4049
:100B2000044D0678761145F8264070BD0CED00E0C6
:100B300000E400E080E100E002490143024A116064
:100B4000704700000000FA050CED00E0704700005F
:100B500029B1064A52690243044B5A6104E0034A30
:100B600052698243014B5A617047000000100240F5
:100B700029B1064AD2690243044BDA6104E0034A10
:100B8000D2698243014BDA617047000000100240D5
:100B900029B1064A92690243044B9A6104E0034A70
:100BA00092698243014B9A61704700000010024035
:100BB00030B500210022002400232D4D6D6805F082
:100BC0000C0121B1042905D0082923D105E0294DC4
:100BD000056022E0284D05601FE0254D6D6805F495
:100BE0007012234D6D6805F48034022505EB9242A6
:100BF0001CB9224D554305600BE01D4D6D6805F491
:100C000000351DB11E4D5543056002E01A4D554398
:100C1000056002E0174D056000BF00BF144D6D6810
:100C200005F0F0010909174D6B5C0568DD40456072
:100C30000F4D6D6805F4E061090A124D6B5C456863
:100C4000DD4085600A4D6D6805F46051C90A0D4D9F
:100C50006B5C4568DD40C560054D6D6805F440413D
:100C6000890B094D6B5CC568B5FBF3F5056130BDBB
:100C70000010024000127A00001BB70000093D007E
:100C8000808D5B00000000201000002010B50221C4
:100C9000244800F0EEF8A8B123480088401C80B238
:100CA000214908802149085C38B108461E4A12884B
:100CB000815C1C4800F0F9F804E000227121194819
:100CC00000F0E0F80121174800F0D3F810B3154800
:100CD00000F0E8F81649174A128888541548008829
:100CE00040F2FF31884202D10020124908801048AA
:100CF00010490988405C2A280DD100210C4A0D4872
:100D00000088401C115411460BA000F047FC002045
:100D10000849088004E007480088401C054908800D
:100D200010BD0000003001401A000020A204002085
:100D3000A2000020180000207265637620646174B0
:100D4000613A2025730D0A0010B526A002F0B4F90F
:100D50000221294800F08DF8B0B1284801680068E8
:100D6000401C264A10602648405C30B12548126875
:100D7000815C214800F099F806E000201F490860D6
:100D800002211D4800F072F801211B4800F071F8A3
:100D900030B3194800F086F8C1B21B4802680068F9
:100DA000401C194B1860194881541846006840F2DD
:100DB000FF31884202D100201946086014A002F0D9
:100DC0007BF9124810490968405C48B90F4802F0A5
:100DD00073F90C48094A1268815C074800F065F80D
:100DE00010BD000073706932207772697465204904
:100DF0007271210A00000000003800402400002029
:100E0000A20C0020A204002020000020A208002044
:100E100068656C6C6F2073706932206972710000B4
:100E200010B502210148FFF748FE10BD000801403F
:100E300010B502210148FFF73EFE10BD0008014039
:100E400021B1028842F04002028004E002884FF69D
:100E5000BF731A4002807047012080F3108800BFE2
:100E60007047002080F3108800BF7047CA4302819A
:100E700070470246002013890B400BB1012000E0AF
:100E80000020704730B5002400230C110125A54037
:100E9000ABB21AB185881D43858002E085889D43E9
:100EA000858030BD0146888970478181704710B5C3
:100EB0000022028802F441520B884C8823438C881C
:100EC0002343CC8823430C8923434C8923438C89B7
:100ED0002343CC8923431A430280838B4FF2FF7450
:100EE000234083830B8A038210BD000010B500BF2E
:100EF00002210A48FFF7BDFF0028F9D0FF2107486B
:100F0000FFF7D3FF00BF01210448FFF7B2FF00281D
:100F1000F9D00248FFF7C6FFC0B210BD0030014053
:100F200010B5044600BF02210948FFF7A2FF0028C0
:100F3000F9D021460648FFF7B8FF00BF0121044859
:100F4000FFF797FF0028F9D00148FFF7ABFF10BD6E
:100F500000300140704710B500F002F810BD0000ED
:100F60000CB50020019000903348006840F48030B8
:100F70003149086000BF3048006800F4003000903C
:100F80000198401C0190009818B90198B0F5A06F25
:100F9000F1D12948006800F4003010B10120009020
:100FA00001E0002000900098012843D12348006808
:100FB00040F01000214908600846006820F0030056
:100FC00008600846006840F0020008601A4840685F
:100FD000194948600846406848600846406840F43F
:100FE000806048600846406820F47C1048600846ED
:100FF000406840F4881048600846006840F08070FF
:10100000086000BF0C48006800F000700028F9D0AC
:101010000948406820F003000749486008464068D6
:1010200040F00200486000BF0348406800F00C0038
:101030000828F9D10CBD0000001002400020024039
:101040007047000010B51348006840F001001149D6
:10105000086008464068104908400E494860084644
:1010600000680E4908400B4908600846006820F4F3
:10107000802008600846406820F4FE0048604FF475
:101080001F008860FFF767FF4FF0006004490860A9
:1010900010BD0000001002400000FFF8FFFFF6FE48
:1010A00008ED00E010B50121014800F003F810BD83
:1010B00000040040CA430282704721B1028842F016
:1010C0000102028004E002884FF6FE731A4002809B
:1010D00070471AB183890B43838102E083898B4374
:1010E00083817047002202881D4B98420ED01D4B11
:1010F00098420BD0B0F1804F08D01B4B984205D0DE
:101100001A4B984202D01A4B984204D14FF68F7373
:101110001A404B881A43174B984207D0164B9842F7
:1011200004D04FF6FF431A40CB881A4302808B88C5
:1011300083850B8803850A4B98420BD0094B984254
:1011400008D00E4B984205D00D4B984202D00D4B63
:10115000984201D10B7A03860123838270470000F5
:10116000002C014000340140000400400008004011
:10117000000C0040001000400014004000400140FE
:10118000004401400048014010B540F225510A4892
:1011900000F03FF870B1084800F0F6F80446214628
:1011A000054800F0F6F800BF8021034800F024F85D
:1011B0000028F9D010BD00000038014001F4007291
:1011C000B2F5007F00D100BFCA430280704721B151
:1011D000828942F40052828104E082894DF6FF73D5
:1011E0001A40828170471AB1838A0B43838202E0DE
:1011F000838A8B438382704702460020B1F5007FCB
:1012000000D100BF13880B400BB1012000E000208B
:10121000704770B50246002400230025002040F6E8
:101220006A16B14200D100BFC1F3421501F01F039D
:10123000012606FA03F3012D02D19689334006E018
:10124000022D02D1168A334001E0968A33400C12F7
:10125000012606FA04F41688344013B10CB10120BB
:1012600000E0002070BDF0B50346002400260025F4
:10127000002040F66A17B94200D100BF1846C1F3FA
:10128000421401F01F06012707FA06F5012C01D1CF
:101290000C3004E0022C01D1103000E014301AB1FF
:1012A00007682F43076002E00768AF430760F0BD9F
:1012B0002DE9F04786B005460E460024A24600BF41
:1012C000A1460027B08900B100BF2F462C8A4CF6FA
:1012D000FF700440F08804432C82AC894EF6F31072
:1012E0000440B08831890843718908430443AC81C4
:1012F000AC8A4FF6FF400440B0890443AC8201A899
:10130000FFF756FC1F48874202D1DDF810A001E02C
:10131000DDF80CA0A88900F4004040B10AEBCA0037
:1013200000EB0A1031684900B0FBF1F807E00AEB66
:10133000CA0000EB0A1031688900B0FBF1F86420A4
:10134000B8FBF0F004012009642101FB1089A88991
:1013500000F4004040B1322000EBC900B0FBF1F0D6
:1013600000F00700044308E0322000EB091064217C
:10137000B0FBF1F000F00F0004432C8106B0BDE893
:10138000F08700000038014001468888C0F308005B
:101390007047C1F308028280704700BFFEE700007B
:1013A00038B504461A498868804719490869804752
:1013B00000BF1748006A10B11548406A70B9144858
:1013C000C169C4F3074088471148C169C4F30720C5
:1013D0008847E0B20E4AD16988470DE0200C8DF8AD
:1013E0000000200A8DF80100E0B28DF802000848E4
:1013F0000321426A68469047054988698047054647
:101400000349486980470249C8688047284638BD73
:101410003C000020F8B504460E4617461F49886870
:1014200080471E490869804700BF1C48006A10B108
:101430001A48406AC0B91948C169C4F307408847CF
:101440001648C169C4F307208847E0B2134AD1693E
:101450008847002505E01149886980477055681C58
:1014600085B2BD42F7DB12E0200C8DF80000200AA7
:101470008DF80100E0B28DF8020008480321426AAD
:101480006846904705483946026A30469047034906
:10149000486980470149C8688047F8BD3C00002082
:1014A00038B504460D461A498868804718490869C6
:1014B000804744F004041648406A90B91448C16952
:1014C000C4F3074088471248C169C4F3072088471E
:1014D000E0B20F4AD16988470D48C169284688475C
:1014E0000FE0200C8DF80000200A8DF80100E0B21A
:1014F0008DF802008DF8035005480421426A6846C1
:1015000090470349486980470149C868804738BD0A
:101510003C000020F8B504460E4617461E49886870
:1015200080471D490869804744F004041A48406A0E
:10153000C0B91948C169C4F3074088471648C16952
:10154000C4F307208847E0B2134AD16988470025D1
:1015500005E0705D104AD1698847681C85B2BD42BC
:10156000F7DB12E0200C8DF80000200A8DF8010056
:10157000E0B28DF8020008480321426A68469047AD
:1015800005483946426A30469047034948698047D2
:101590000149C8688047F8BD3C0000200FB4054BE6
:1015A00010B503A9044A029800F0ECF810BC5DF8ED
:1015B00014FB0000252200086C00002037B51446FB
:1015C0000846064B6A46214600F0DCF804466946A8
:1015D000002000F06EFC20463EBD0000B31E000857
:1015E00002E008C8121F08C1002AFAD170477047EC
:1015F000002001E001C1121F002AFBD1704700004A
:101600002DE9FF5F82B00021DDE90430020DDDF835
:1016100040B0034318D044F61050A2F2FF324243C8
:101620001514119801281FD0A5EB0B00401C5FEA90
:10163000000A4FF000064E4FDFF83891B046504692
:1016400015D5CAF1000413E0119801244AA301281A
:1016500001D16FEA0B010298119AC0E90031C0E98B
:10166000024206B0BDE8F09FCBF10000DFE7044680
:101670000021404A491842EB0450CDE9001012E025
:10168000E00707D032463B4640464946FEF788FE13
:101690008046894632463B4610461946FEF780FE94
:1016A00006460F466410002CEAD1DDE90401DDE9AD
:1016B0000023BAF1000F06DAFEF772FE42464B46EF
:1016C000FEF76EFE05E0FEF7DDFE42464B46FEF7F6
:1016D000D9FE04460E460022284BFEF75BFF03D8D6
:1016E0004FF0FF30014607E00022254B20463146EF
:1016F000FEF7AFFDFEF735FF102409E0002C0ADBF2
:101700000A220023FEF774FD039B30321A55641E33
:1017100050EA0102F2D1641C039AC4F1110314448B
:10172000119A012A03D0012208430DD10AE008438F
:1017300004D000204FF0110B119072E7A3EB0B05C2
:101740006D1E0DE05B4504DD4FF0000205F1010563
:1017500004E003DA4FF00002A5F10105002AECD005
:1017600002981199C0E90231C0E9004579E700000B
:10177000000014400000F03F300000000000F04383
:101780000000E03F2DE9FF4F95B09B468946064695
:1017900000250FE2252877D100242746F84A0121A9
:1017A000059400E0044316F8013F203B01FA03F0E2
:1017B0001042F7D130782A2811D06FF02F033078FB
:1017C000A0F13002092A16D8059A44F0020402EB6F
:1017D000820203EB42021044761C0590EFE759F8B1
:1017E000042B0592002A03DA504244F40054059079
:1017F00044F00204761C30782E2816D116F8010F1A
:1018000044F004042A280DD06FF02F023078A0F1A4
:101810003003092B09D807EB870302EB4303C718F2
:10182000761CF3E759F8047B761C30786C280FD0CF
:1018300006DC4C2817D068280DD06A2814D104E0A3
:10184000742810D07A280FD10DE044F400140AE077
:1018500044F4801401E044F440147278824202D1CE
:1018600004F58014761C761C307866280BD013DCC7
:10187000582877D009DC002875D04528F6D04628AE
:10188000F4D047281AD19DE118E0632835D06428A8
:1018900079D0652812D195E1702873D008DC6728CB
:1018A000F1D069286FD06E280DD06F2806D1B5E031
:1018B00073282CD0752875D0782874D05A4617997B
:1018C00090476D1C75E1C4F30250022809D003282B
:1018D0000DD0D9F8001004280DD00D6009F10409CD
:1018E00067E1D9F80010EA17C1E90052F6E7D9F824
:1018F00000100D80F2E70D70F0E719F8041B8DF869
:10190000001000208DF80100EA46012003E059F89C
:1019100004AB4FF0FF3061074FF0000102D40DE03F
:1019200008F101018846B9420FDA8045F8DB1AF860
:1019300008100029F4D108E008F10101884681422D
:10194000FADB1AF808100029F6D105985B46A0EBDF
:10195000080721463846179A00F094FA284400EB0D
:10196000080507E04DE029E10DE01AF8010B5A46A1
:1019700017999047B8F10108F7D25B4621463846DF
:10198000179A13E142E00A220092C4F302524FF088
:10199000000A022A08D059F804CB032A4FEAEC7156
:1019A0000AD00DE029E02AE009F1070121F0070241
:1019B000F2E802C1914609E00FFA8CFC4FEAEC71A3
:1019C000042A03D14FFA8CFC4FEAEC71002907DAA4
:1019D0000A460021DCF1000C61EB02012D2202E03D
:1019E000220504D52B228DF80420012203E0E20712
:1019F00001D02022F7E7904659E00A2102E01022A8
:101A00000DE010214FF0000A00910BE010224FF082
:101A1000000A44F004040827009203E008224FF073
:101A2000000A0092C4F30252022A05D059F804CBEE
:101A30000021032A08D009E009F1070121F007027B
:101A4000F2E802C1914605E01FFA8CFC042A01D19C
:101A50000CF0FF0C4FF00008220728D5702806D0A4
:101A6000009B83F0100353EA0A0305D00EE04022E6
:101A70008DF80420012208E05CEA010206D0302241
:101A80008DF804208DF8050002229046009B83F01B
:101A9000080353EA0A030AD15CEA010201D1620792
:101AA00005D530228DF804204FF001087F1E5828FC
:101AB00004D034A003900EA802900DE036A0F9E700
:101AC00053466046009AFEF793FB84460398825C77
:101AD0000298401E029002705CEA0100F0D1029868
:101AE00006A9081A00F1200A600702D524F4803400
:101AF00000E00127574502DDA7EB0A0000E00020C7
:101B000000EB0A01009005984144401A0590E0035B
:101B100006D45B462146179A059800F0B3F90544B0
:101B2000002706E001A85A46C05D179990476D1C32
:101B30007F1C4745F6DBE0030CD55B462146179A30
:101B4000059800F09FF9054404E030205A461799A3
:101B500090476D1C0099481E00900029F5DC08E0B4
:101B6000029802995A460078491C029117999047A9
:101B70006D1CBAF10001AAF1010AF1DC65E1000077
:101B80000928010030313233343536373839616253
:101B90006364656600000000303132333435363717
:101BA00038394142434445460000000000F058F9EE
:101BB0000544761C307800287FF4ECAD19B0284637
:101BC000BDE8F08F620700D4062709F1070222F072
:101BD000070CFCE80223E14603F000485FEA080C2A
:101BE00002D00FF2702C0DE05FEA045C02D50FF218
:101BF000682C07E05FEAC47C02D00FF2602C01E0A1
:101C0000AFF2700C4FF0FF3823F00043CDF850C016
:101C100065280CD006DC452809D046281DD0472869
:101C20003DD13DE0662818D067287ED138E00021FC
:101C3000112F01DB112000E0781CCDE9000106A97D
:101C40000EA8FFF7DDFCDDE90F010E9A03910021DC
:101C5000009207F1010A04914DE04FF00040009717
:101C6000CDE9011006A90EA8FFF7CAFCDDE90F02B5
:101C700003920E9B11990022DDF80CA000930492B0
:101C800011B9791C00EB010AB7EB0A0004D4C0F1CA
:101C9000FF3007F1010A0490AAEB0700019044E02D
:101CA000012F00DA01270021112F01DD112000E0B2
:101CB0003846CDE9000106A90EA8FFF7A1FCDDE931
:101CC0000F010E9A0391002104910092BA46210758
:101CD0000CD40399514500DA8A46BAF1010F05DDAB
:101CE000009AAAF10101515C302908D0B84202DA09
:101CF00010F1040F06DA0121CDE9011015E0AAF177
:101D00000101E9E7002805DC049901440491AAEBEC
:101D1000000102E0411C514500DD8A460499401A49
:101D2000401C01904FF000400290200704D401981D
:101D3000504501DBCDF8048000208DF84F0002985B
:101D40000DF14F07B0F1004F25D02B200E900298D7
:101D50004FF0020800280CDA404202902D200E902D
:101D600007E00A210298FEF72DFA3031029007F8B9
:101D7000011DB8F10001A8F10108F2DC0298002869
:101D8000EFD1791E0E980870307800F0200040F0F6
:101D9000450007F8020D12A8C01B00F107081498AF
:101DA000007800B1012000EB0A01019801EBE0711D
:101DB00005984144401A401E0590E00306D45B4656
:101DC0002146179A059800F05DF8054414980078AC
:101DD00018B15A46179990476D1CE00324D55B460D
:101DE0002146179A059800F04DF805441CE0049828
:101DF000002807DBDDE90301884203DD0098405C31
:101E0000179901E0179930205A469047049805F138
:101E10000105401C04900198401E019004D12E2021
:101E20005A46179990476D1CBAF10001AAF1010AB0
:101E3000DDDC05E017F8010B5A46179990476D1C39
:101E4000B8F10001A8F10108F4DC5B462146179ABD
:101E50000598ABE62D0000002B00000020000000DC
:101E60002DE9F041044600251E461746880404D497
:101E700005E039462020B0476D1C641EF9D5284680
:101E8000BDE8F0812DE9F041044600251E4690464C
:101E9000C80301D5302700E02027880404D505E0D9
:101EA00041463846B0476D1C641EF9D52846BDE84A
:101EB000F0810A68531C0B601070704710B504461F
:101EC00000BF082C02DD4FF0FF3010BD00BFA100A5
:101ED000491C4FF4807202EBC1001021FFF7E0FAB9
:101EE00000BFA100491C4FF4807202EBC100FFF754
:101EF00057FA0028F5D1A100491C4FF4007202EBFB
:101F0000C1001F21FFF7CCFA0120A0400F4909882A
:101F100081430E4801800120A0400D49098881437A
:101F20000B48018000200B4921F814000A4908558C
:101F300000BFA100491C4FF4407202EBC100FFF743
:101F40002FFA0028F5D10120BFE700002E00002065
:101F500030000020A21000203200002070B505469D
:101F60000C46062D1CD2DFE805F003070B0F1317F4
:101F7000204601F02BFA16E0204601F089F912E024
:101F8000207801F04FFA70BD01F0B0F920700AE03E
:101F9000204601F05AFA06E0204601F0ACF902E0D2
:101FA0004FF0FF30EFE700BF0020ECE72DE9FC41E8
:101FB00006460C460025002000900190102E79D294
:101FC000DFE806F0080B1A161E2226323F5154583D
:101FD0005C5D616C01F04FFA6FE01CB100940098F9
:101FE00008300190DDE9000101F099F9BDE8FC81BC
:101FF000208801F010F960E001F021F920805CE018
:10200000208801F0D4F958E001F02EF9208054E046
:10201000208801124FF49850FFF742FA21784FF4CC
:10202000A050FFF73DFA48E04FF4A050FFF7B8F991
:1020300007464FF49850FFF7B3F907EB00202080D4
:102040003BE01F48807820701D48C07860701C48B5
:102050000079A0701A484079E070194880792071A1
:102060000020607129E001F096FA26E0204601F098
:10207000ACFA22E0204601F037FA1EE01DE020789D
:1020800001F0CFFAB2E701F078FAC5B268B2401CAD
:1020900010B94FF0FF30A9E725700EE001F060FAAB
:1020A000C5B268B2401C18B94FF0FF309EE701E09E
:1020B000257002E04FF0FF3098E700BF002095E761
:1020C0003C000020014642F228324A434FF0E02310
:1020D0005A6100229A6101221A6100BF4FF0E0228A
:1020E000106900F001021AB100F48032002AF5D024
:1020F00000224FF0E0231A619A61704710B5044640
:1021000000BF082C02DD4FF0FF3010BD00BF00BF44
:10211000A100491C002202EBC100FFF741F900F0C9
:102120000F00012802D06FF00400EEE700BFA1000D
:10213000491C4FF4807202EBC1000821FFF7B0F98F
:1021400000BFA100491C4FF4807202EBC100FFF7F1
:1021500027F90028F5D10120A040154909888143BD
:10216000134801800120A04012490988084008B1A5
:102170000020CAE710E0A100491C4FF4007202EBF6
:10218000C100FFF70DF900F0080028B12046FFF765
:1021900095FE6FF00C00B8E7A100491C4FF44072A7
:1021A00002EBC100FFF7FCF80028E4D10120ACE706
:1021B000300000202E00002000B58BB01348FEF741
:1021C000CDFA13480090134801901020029032205D
:1021D0000390002007900690049080200590002036
:1021E0000A904FF400500990002008906946074873
:1021F000FEF763FB4FF48050FEF796FA01220221AE
:102200000248FEF751FB0BB000BD00004400024045
:10221000043801407000002010B501210846FEF787
:1022200097FC10BD70B504460D46E0B200F074FB9B
:10223000204670BD70B504460025002600BFA100F1
:10224000491C4FF4185202EBC100FFF7A9F80646EB
:10225000A100491C4FF4185202EBC10101F5807036
:10226000FFF79EF800EB062086B2AEB1A100491C34
:102270004FF4185202EBC100FFF792F80546A10097
:10228000491C4FF4185202EBC10101F58070FFF7B1
:1022900087F800EB052085B2B542D0D1284670BD45
:1022A00070B504460025002600BFA100491C4FF46C
:1022B000005202EBC100FFF773F80646A100491C6B
:1022C0004FF4005202EBC10101F58070FFF768F88E
:1022D00000EB062086B2AEB1A100491C4FF40052BB
:1022E00002EBC100FFF75CF80546A100491C4FF462
:1022F000005202EBC10101F58070FFF751F800EBCD
:10230000052085B2B542D0D1284670BD10B503A4D2
:1023100021460548FDF74DFF10BD000068656C6C57
:102320006F20737069322100A20C002008B500F004
:102330001DF80120ADF8000003208DF802001020E8
:102340008DF8030069460248FEF718FB08BD00003F
:102350000008014010B500F00FF818B9012102483B
:10236000FEF7ABFB10BD00000008014010B50121D5
:102370000420FEF70DFC10BD10B501210348FEF747
:1023800091FB08B9002010BD0120FCE700080140C6
:1023900010B5044600BF082C02DD4FF0FF3010BD21
:1023A00000BF00BFA100491C002202EBC100FEF7E4
:1023B000F7FF00F00F00012802D06FF00400EEE7F5
:1023C00000BF00BFA100491C4FF4407202EBC100E6
:1023D000FEF7E6FF132802D06FF00200DFE700BF30
:1023E000A100491C4FF4807202EBC1000221FFF7EB
:1023F00057F800BFA100491C4FF4807202EBC100E6
:10240000FEF7CEFF0028F5D105E02046FFF756FD88
:102410006FF00300C3E7A100491C4FF4407202EBC8
:10242000C100FEF7BDFF1428EFD10120B7E700007F
:102430002DE9FF5F04468846924600260027A1004A
:10244000491C4FF4407202EBC100FEF7A9FF83461E
:1024500059465BA0FFF7A2F8A100491C4FF4407257
:1024600002EBC100FEF79CFF002875D0132874D042
:10247000172802D01C2871D176E055A0FFF78EF8FE
:10248000A100491C4FF4007202EBC100FEF788FF67
:1024900000F00100002838D0A100491C4FF4406230
:1024A00002EBC100042203A9FEF7B4FFA100491CFE
:1024B0004FF4805202EBC10101F58070FEF770FF0E
:1024C0008346A100491C4FF4805202EBC100FEF785
:1024D00067FF0BEB00201FFA80F99DF80F009DF8B5
:1024E0000E10CDE9010900919DF80D309DF80C20EA
:1024F00021463CA0FFF752F8A100491C4FF400729E
:1025000002EBC1000121FEF7CBFF2046FFF792FE50
:10251000061E28DDB6F5006F01DD4FF40066324679
:102520004146204600F040FA0546002D03DC2846CF
:1025300004B0BDE8F09F002713E0F01B82B208EB67
:102540000701204600F01CFB0546002D07DA204657
:10255000FFF7B4FC2846EBE721E012E02BE0781906
:1025600087B2BE42E9D127E02046FFF7C7FD054606
:10257000012801D02846DBE7214623A0FFF70EF80B
:102580001AE05246214625A0FFF708F82046FFF73B
:10259000FFFE0546012801D02846C9E70CE00023CC
:1025A00052460121204600F0ABFB0546A04201D077
:1025B0002846BDE700E000BF00BF0120B8E70000EB
:1025C00067657420736E5F73722025640D0A0000C6
:1025D000736F636B2065737461626C6973686564A3
:1025E0000D0A000025643A436F6E6E65637465647E
:1025F000202D2025642E25642E25642E2564203A66
:102600002025640D0A00000025643A536F636B6552
:102610007420436C6F7365640D0A000025643A4CA6
:10262000697374656E2C205443502073657276650F
:1026300072206C6F6F706261636B2C20706F7274AC
:10264000205B25645D0D0A00ADF5806D00BF4FF481
:1026500080616846FDF78FFDFEF7F4FC4FF4A06043
:10266000FEF76AFAFFF762FE00F0B2FC00F016FD1A
:1026700000F062FC41F28830FFF724FDFFF76AFEAC
:1026800000F022FA00F024F800F006F913214FF4CC
:102690008160FEF705FF88214FF4A160FEF700FF7F
:1026A0000EE041F2883269460020FFF7C1FE044681
:1026B000214604A0FEF772FF4FF47A70FFF702FD87
:1026C000EFE70000726574203D2025640D0A0000CC
:1026D00000B591B03EA000680E903EA000680D903D
:1026E0003DA000680C903DA103C9CDE90A0100207E
:1026F000099000BF10E00EA90A5C26390A540DA902
:102700000A5C1A390A540CA90A5C1A390A5409A934
:102710000A5C891F0A54401C0428ECDB002004E0FA
:102720000AA9095C03AA1154401C0628F8DB03A976
:102730000020FFF713FC03A90120FFF70FFC0FA9EE
:102740000820FFF733FC9DF811109DF810009DF84C
:102750000F20CDE9002002919DF80E309DF80D204C
:102760009DF80C101FA0FEF719FF9DF815000090B2
:102770009DF814309DF813209DF8121023A0FEF749
:102780000DFF9DF81D0000909DF81C309DF81B204A
:102790009DF81A1022A0FEF701FF9DF81900009085
:1027A0009DF818309DF817209DF8161021A0FEF70F
:1027B000F5FE03A8407D009003A8037D9DF81F202F
:1027C0009DF81E1020A0FEF7E9FE11B000BD00002C
:1027D000C0A801FEC0A80101FFFFFF00866B58469C
:1027E0006AF500004D41433A20253032583A2530F1
:1027F00032583A253032583A253032583A2530325C
:10280000583A253032580D0A000000005349503A1A
:102810002025642E25642E25642E25640D0A0000D3
:102820004741523A2025642E25642E25642E2564C6
:102830000D0A00005355423A2025642E25642E25AA
:10284000642E25640D0A0000444E533A2025642E60
:1028500025642E25642E25640D0A000008B5252068
:102860008DF8000003208DF8010002208DF8020091
:1028700001208DF803006846FEF726F90E208DF83A
:10288000000001208DF801008DF802008DF8030092
:102890006846FEF719F908BD00B585B00F4B0FCBA0
:1028A0008DE80F0069460120FFF780FB401C20B92E
:1028B0000BA0FEF773FE05B000BD00BF04A90F20FA
:1028C000FFF774FB401C10B90CA0FEF767FE9DF8E3
:1028D00010000028F2D000BFEDE7000088360008A5
:1028E00077697A6368697020696E697469616C6977
:1028F0007A6564206661696C2E0D0A006377206733
:102900006574207068796C696E6B206661696C65AE
:10291000642E0D0A0000000001B500BF0C480078CD
:102920000028FBD000200A490870012269460948A6
:10293000FDF72CFC00210848FDF704FF01210648A3
:10294000FDF7D9FF01210448FDF7FCFE08BD00009A
:1029500014000020700000204400024070B50446BE
:1029600000BF0E4800780028FBD000200B490870FB
:1029700021460B48FDF71DFC00210A48FDF7E2FE49
:102980002046FDF70FFC85B229460648FDF7B3FF48
:1029900001210448FDF7D6FE70BD000014000020A0
:1029A00070000020440002402DE9F04704468846AC
:1029B00016460027002500BF082C02DD681EBDE872
:1029C000F08700BF00BFA100491C002202EBC1003C
:1029D000FEF7E6FC00F00F00012802D06FF00400C3
:1029E000EDE700BF00BF16B96FF00D00E7E700BFCD
:1029F000A100491C4FF4F05202EBC100FEF7D0FCDD
:102A00004FF6FF7101EA8025B54200DA2E4638E024
:102A10002046FFF70FFC0546A100491C4FF4407209
:102A200002EBC100FEF7BCFC0746172F1ED01C2F7F
:102A300016D105B126E02046FFF732FC8146A10001
:102A4000491C4FF4F85202EBC100FEF7A9FCB9EBA8
:102A5000802F0BD12046FFF731FA6FF00600AEE76A
:102A60002046FFF72BFA6FF00600A8E70120A040F0
:102A700014490988084010B10DB900209FE705B13D
:102A800000E0C5E700BFB54200DA2E4632464146B7
:102A9000204600F037FBA100491C4FF4807202EB86
:102AA000C1004021FEF7FCFC00BFA100491C4FF40F
:102AB000807202EBC100FEF773FC0028F5D13046AE
:102AC0007DE700002E00002010B50649064800F002
:102AD00015F80649064800F025F80649064800F0B2
:102AE00035F810BD630E0008590E0008210E0008CD
:102AF000310E0008210F0008ED0E000800B131B9B9
:102B0000054A064B9A60064B044AD36002E0034A2A
:102B10009060D16070470000373200083C00002010
:102B20003932000800B131B9054A064B1A61064B2B
:102B3000044A536102E0034A10615161704700008A
:102B40003D3200083C0000203B32000800BF094A2B
:102B5000128802F40072002AF9D000B131B9064A95
:102B6000044B9A61054B034AD36102E0014A90612C
:102B7000D16170473C0000207134000875340008B2
:102B80002DE9F0410446884615460026002700BF7F
:102B9000082C02DD701EBDE8F08100BF00BFA1005F
:102BA000491C002202EBC100FEF7FAFB00F00F0007
:102BB000012802D06FF00400EDE700BF00BF15B997
:102BC0006FF00D00E7E700BFA100491C4FF4407211
:102BD00002EBC100FEF7E4FB0646172E04D01C2EC4
:102BE00002D06FF00600D6E70120A04042490988D4
:102BF000084040B3A100491C4FF4007202EBC10031
:102C0000FEF7CEFB00F01F0606F0100080B1A10019
:102C1000491C4FF4007202EBC1001021FEF740FC8A
:102C20000120A040344909888143334801800AE0EB
:102C300006F0080028B12046FFF740F96FF00C00BD
:102C4000A9E70020A7E7A100491C4FF4F85202EBC6
:102C5000C100FEF7A5FB4FF6FF7101EA8027BD42D8
:102C600000DD3D4623E02046FFF71AFB0746A100A2
:102C7000491C4FF4407202EBC100FEF791FB06467F
:102C8000172E07D01C2E05D02046FFF717F96FF03E
:102C9000060080E70120A04018490988084018B1C3
:102CA000BD4201DD002076E7BD4200DC00E0DAE74E
:102CB00000BF2A464146204600F066FAA100491CA2
:102CC0004FF4807202EBC1002021FEF7E9FB00BF48
:102CD000A100491C4FF4807202EBC100FEF760FBBB
:102CE0000028F5D10120A040034909880843024982
:102CF000088028464FE70000300000202E0000200A
:102D0000F8B504460E4617461D4600BF082C02DDE6
:102D10004FF0FF30F8BD00BF012E04D0022E0ED0C0
:102D2000042E0ED10CE0042269464FF47060FEF7C9
:102D300071FB009810B96FF00200EBE700BF00BF15
:102D400002E06FF00400E5E700BF05F0040010B1F9
:102D50006FF00500DEE705B3012E02D0022E1AD176
:102D600006E005F0210010B96FF00500D2E713E08E
:102D700005F0200028B105F0800010B96FF00500C3
:102D8000C8E705F0100028B105F0800010B96FF019
:102D90000500BFE700E000BF00BF2046FFF78EF848
:102DA00005F0F00242EA0601A200521C002303EBE8
:102DB000C200FEF775FB7FB9304807880088401CC9
:102DC0002E490880084600884FF6F071884203D1EA
:102DD0004FF44040294908803912A200521C4FF498
:102DE000806303EBC200FEF75BFBF9B2A200521C4A
:102DF0004FF4806303EBC20202F58070FEF750FBD4
:102E0000A100491C4FF4807202EBC1000121FEF7C2
:102E100047FB00BFA100491C4FF4807202EBC100C8
:102E2000FEF7BEFA0028F5D10120A0401449098818
:102E300081431348018005F00100A0401049098832
:102E400008430F4908800120A0400E4909888143AA
:102E50000C48018000200C4921F814000B4908554A
:102E600000BFA100491C4FF4407202EBC100FEF705
:102E700097FA0028F5D060B24CE700002C00002043
:102E80002E00002030000020A21000203200002080
:102E900000B585B00020ADF80800ADF80600ADF82B
:102EA0000400ADF80C00ADF80000ADF80E004FF4D2
:102EB0008270ADF802004FF40070ADF80A000720F0
:102EC000ADF8100069460448FDF7F1FF0121024802
:102ED000FDF7B6FF05B000BD0030014008B5022087
:102EE000ADF8000003208DF8020010208DF80300DB
:102EF00069461048FDF742FD2020ADF8000018207B
:102F00008DF8030069460B48FDF738FD8020ADF8C9
:102F1000000069460748FDF731FD4020ADF800008C
:102F200069460448FDF72AFD02210248FDF7C5FD68
:102F300008BD00000008014010B500F019F8FFF7C7
:102F4000CDFFFFF7A5FF00F003F8FFF7DFF910BD95
:102F500008B523208DF8000002208DF80100012023
:102F60008DF802008DF803006846FDF7ADFD08BD41
:102F700010B501210846FDF70BFE01210420FDF7E5
:102F800007FE01210803FDF703FE10BD0EB5012168
:102F90000E48FEF78FF84FF4FA60ADF8040048F6DB
:102FA0009F40ADF800000020ADF80600ADF802002B
:102FB00069460648FEF796F8012211460348FEF7D7
:102FC00088F801210148FEF778F80EBD00040040A2
:102FD00010B500F015F8FFF7D9FF00F001F810BDAB
:102FE00008B51D208DF8000000208DF8010001209B
:102FF0008DF802008DF803006846FDF765FD08BDF9
:1030000010B501210220FDF7B3FD10BD1FB54FF42F
:10301000165000900020ADF80400ADF80600ADF8A1
:103020000800ADF80C000C20ADF80A0069460B480A
:10303000FEF73EF9012240F225510848FEF713F948
:10304000012280210548FEF7CEF801210348FEF752
:10305000BEF840210148FEF7B1F81FBD003801401D
:1030600008B54FF40070ADF8000003208DF80200A1
:1030700018208DF8030069460748FDF77FFC4FF4E0
:103080008060ADF8000004208DF803006946024816
:10309000FDF774FC08BD00000008014010B500F009
:1030A00023F8FFF7DDFFFFF7B7F8FFF785F8FFF725
:1030B000ADFFFFF7D3FB10BD0FB400B5C1B043A8FF
:1030C00040906846409A4299FEF778FA6846FFF7C2
:1030D00045FC04A0FFF742FC0020409041B05DF8A1
:1030E00014FB00000D0A000010B501210846FDF791
:1030F0004FFD01210420FDF74BFD01218803FDF761
:1031000047FD10BD2DE9F04704460F461646002541
:10311000A8460EB9BDE8F087A100491C4FF4205223
:1031200002EBC10101F58070FEF73AF98146A1007A
:10313000491C4FF4205202EBC100FEF731F909EBB4
:10314000002085B22902A000C01C01EBC008324655
:1031500039464046FEF75EF9A81985B22912A20049
:10316000521C4FF4205303EBC200FEF799F9E9B269
:10317000A200521C4FF4205303EBC20202F58070F0
:10318000FEF78EF900BFC5E72DE9F04704460F466C
:1031900016460025A8460EB9BDE8F087A100491CD7
:1031A0004FF4105202EBC10101F58070FEF7F8F800
:1031B0008146A100491C4FF4105202EBC100FEF7FA
:1031C000EFF809EB002085B22902A000801C01EB7A
:1031D000C008324639464046FEF79CF9A81985B228
:1031E0002912A200521C4FF4105303EBC200FEF749
:1031F00057F9E9B2A200521C4FF4105303EBC2027C
:1032000002F58070FEF74CF900BFC5E7014608786B
:1032100070470170704770B50446E5B2261205F09C
:10322000F0014FF4A850FEF73BF931464FF4B85087
:10323000FEF736F970BD704770477047704770B53C
:103240000026002400254FF4A850FEF7A9F800F04E
:10325000F0064FF4B850FEF7A3F80446254606EBF7
:10326000052085B2284670BD70B5002600240025D3
:103270004FF4B050FEF794F806464FF4C050FEF7F6
:103280008FF80446254606EB052085B2284670BD1A
:1032900010B50446062221464FF41060FEF7BAF836
:1032A000042204F10E019001FEF7B4F8042204F1A7
:1032B0000A014FF4A060FEF7ADF80422A11D4FF4FF
:1032C0007060FEF7A7F807480078A07405484178B9
:1032D000E17481782175C178617503480078A07523
:1032E00010BD0000640000206800002010B5002020
:1032F000FEF756F810BD70B504464FF4D850FEF7EF
:103300004FF820704FF4D050FEF74AF805464FF4BE
:10331000C850FEF745F805EB0020608070BD2DE930
:10332000F04105460E46002700F0A5F8F5B100BFB4
:1033300000240AE0285D384447B2102F03DD4FF027
:10334000FF30BDE8F081601C44B2082CF2DB0024A1
:103350000AE0295DA200521C4FF4F85303EBC200AF
:10336000FEF79EF8601C44B2082CF2DBEEB1002799
:10337000002409E0305D384447B2102F02DD4FF0E1
:10338000FF30DEE7601C44B2082CF3DB00240AE0C7
:10339000315DA200521C4FF4F05303EBC200FEF764
:1033A0007FF8601C44B2082CF2DB0020C9E770B53E
:1033B0000446E5B2261229464FF4B050FEF770F8E5
:1033C00031464FF4C050FEF76BF870BD10B504469F
:1033D000062221464FF41060FEF79CF8042204F107
:1033E0000E019001FEF796F8042204F10A014FF451
:1033F000A060FEF78FF80422A11D4FF47060FEF765
:1034000089F8A07C05490870E07C4870207D8870B0
:10341000607DC870A07D0249087010BD6400002066
:103420006800002070B50446002524F03A0008B179
:10343000681E70BD0020FDF7B3FF054625432946F1
:103440000020FEF72DF80020F3E710B504462178A0
:103450004FF4D850FEF724F8608801124FF4C8509A
:10346000FEF71EF8A1784FF4D050FEF719F810BD02
:1034700000207047704700B585B0062269464FF4BA
:103480001060FDF7C7FF042204A99001FDF7C2FFF9
:10349000042203A94FF4A060FDF7BCFF042202A997
:1034A0004FF47060FDF7B6FF80210020FDF7F8FFB4
:1034B0000020FDF775FF062269464FF41060FEF705
:1034C00029F8042204A99001FEF724F8042203A994
:1034D0004FF4A060FEF71EF8042202A94FF47060BA
:1034E000FEF718F805B000BD70B5044600254FF48E
:1034F0003850FDF755FF0546C5F38010207005F0E4
:103500003800202802D0382803D100BF0120607085
:1035100002E00020607000BF00BF05F038001028F6
:1035200005D0182802D0202804D100BF00BF0120F8
:10353000A07002E00020A07000BF00BF05F03800BE
:10354000082805D0182802D0202804D100BF00BFC9
:103550000120E07002E00020E07000BF00BF70BDFD
:1035600010B54FF43850FDF71BFF00F0010008B113
:10357000012400E00024204610BD10B500244FF4C3
:103580003850FDF70DFF00F0300008B1012400E0D5
:103590000024204610BD10B54FF43850FDF700FF51
:1035A000044624F0800421464FF43850FDF778FF9C
:1035B0004FF43850FDF7F4FE044644F080042146F1
:1035C0004FF43850FDF76CFF10BD70B50546002470
:1035D0002878012802D144F0400401E024F040049E
:1035E0006878012802D144F0380412E0E878012814
:1035F00008D1A878012802D144F0180409E044F069
:10360000080406E0A878012802D144F0100400E084
:1036100000BF21464FF43850FDF742FFFFF7BBFFD4
:1036200070BD70B5054600244FF43850FDF7B8FE64
:10363000044604F0400010B94FF0FF3070BD24F094
:103640003804012D02D144F0300401E044F0380484
:1036500021464FF43850FDF723FFFFF79CFF4FF44E
:103660003850FDF79DFE0446012D04D104F03000D2
:1036700030B10020E2E704F0380008B10020DDE7B7
:103680004FF0FF30DAE700000202020202020202FB
:103690000202020202020202B83600080000002004
:1036A00070000000E01500082837000870000020B6
:1036B00048140000F0150008000000000102030497
:1036C00001020304060708090204060801000000BD
:1036D00000000000000000000000000000000000EA
:1036E0000000000000C0000000000000000000001A
:1036F0000000000001025735353030003732000835
:10370000393200083D3200083B3200080D32000813
:10371000133200080000000000000000000000005C
:083720000000000000000000A1
:0400000508000131BD
:00000001FF
