:020000040800F2
:10000000901E00204501000811140008211000086E
:100010000D14000837070008ED1C00080000000060
:100020000000000000000000000000001B18000895
:10003000CB0D000800000000991400080519000805
:100040005F0100085F0100085F0100085F01000810
:100050005F0100085F0100085F010008CD0D000886
:10006000CF0D0008D10D00085F0100085F010008F6
:100070005F0100085F010008D90B00085F0100085C
:100080005F0100085F0100085F010008611C0008B3
:10009000AD1C00085F0100085F010008D50D0008D5
:1000A0005F0100085F0100085F0100085F010008B0
:1000B0005F010008691900085F0100085F0100087E
:1000C0005F0100087D11000825100008F1150008E7
:1000D000AD1600084D1A00085F0100085F01000816
:1000E0005F0100085F0100085F0100085F01000870
:1000F0005F0100085F0100085F0100085F01000860
:100100005F0100085F0100085F0100085F0100084F
:100110005F0100085F0100085F0100085F0100083F
:100120005F0100085F0100085F0100085F0100082F
:10013000DFF80CD000F034FA00480047412B0008EB
:10014000901E00200648804706480047FEE7FEE76D
:10015000FEE7FEE7FEE7FEE7FEE7FEE7FEE7FEE777
:10016000091900083101000810B5044604E00B78B5
:1001700000F8013B03B1491C521EF8D2204610BDC5
:10018000421C10F8011B0029FBD1801A704703465E
:1001900011F8012B00F8012B002AF9D118467047FD
:1001A00030B50B46014600202022012409E021FA47
:1001B00002F59D4205D303FA02F5491B04FA02F544
:1001C0002844151EA2F10102F1DC30BD2DE9F05FDB
:1001D0000546002092469B468846064681464024B6
:1001E0001BE0284641464746224600F0FAF95346AE
:1001F0005A46C01A914110D311461846224600F0C3
:10020000E1F92D1A67EB01084F4622460120002133
:1002100000F0D8F917EB00094E41201EA4F10104AB
:10022000DFDC484631462A464346BDE8F09F2DE9CB
:10023000FE4F804681EA0300C00F0C46009021F07B
:10024000004123F00045B8EB0200A94105D2404629
:10025000214690461C460B46024623F000401043C0
:1002600047D0270DC7F30A00C3F30A510290401A82
:10027000019040286BDAC3F3130040F4801B009810
:10028000924620B10023D2EB030A63EB0B0B0198DB
:100290005946C0F14002504600F094F906460D461A
:1002A00050465946019A00F0ACF910EB0800614144
:1002B000002487EA115284EAE7731A4340D0009A77
:1002C00062B3019A012A4FEA075215DC001B61EB69
:1002D00002014FF0004202EA0752CDE90042001C41
:1002E00041F5801132462B4600F0ACF903B0BDE871
:1002F000F08F40462146F9E7001B61EB0201001C2C
:1003000041F5801300185B412018A2F5001747EB58
:10031000030140EAD570B6196D4111E06D084FEA4E
:10032000360645EAC0754FEA0752001B61EB020131
:10033000001C41F5801149084FEA30000019514175
:1003400032462B4603B0BDE8F04F00F06CB9009880
:10035000012240000023D0EB020263EBE07300981F
:1003600021464FEAE074B8EB000061EB0401E9E7D5
:1003700083F000435BE781F0004158E72DE9FE4F31
:1003800081EA030404F0004421F0004100944FF09E
:10039000000B23F0004350EA01045ED052EA03044C
:1003A0005BD0C3F30A54C1F30A552C44A4F2F334CE
:1003B0000194A0FB0254C1F3130141F48011C3F373
:1003C000130343F4801301FB024400FB034E840A31
:1003D000970A44EA815447EA8357A4FB07680295C9
:1003E0008D0A05FB07854FEA932C04FB0C54270567
:1003F000029D4FEA065847EA1637B5EB08056EEB43
:10040000070C870E920E47EA811742EA8312A7FB78
:100410000201B6EB0B0164EB00042B0D43EA0C3335
:100420005E1844EB1C50DA465146E7FB0201C5F367
:1004300013044FEA0B3343EA14534FEA0432019C8E
:1004400043EA0603A4F10C040294009CCDE900B435
:1004500000F0F8F803B0BDE8F08F00200146F9E79E
:100460002DE9F04D81EA030404F0004B21F0004532
:1004700014464FF0000A23F0004150EA050220D054
:1004800054EA01021DD0C5F30A570246C5F313030F
:10049000C1F31300C1F30A5640F4801543F48013EE
:1004A000A7EB0608101BD64608F2FD3873EB0500D3
:1004B00002D308F1010801E092185B41B8F1000F86
:1004C00003DA00200146BDE8F08D00204FF48011D2
:1004D000064684460EE0171B73EB050705D3121B77
:1004E00063EB050306434CEA010C49084FEA300070
:1004F00092185B4150EA0107EDD152EA030012D095
:1005000082EA040083EA0501084305D0101BAB41D1
:1005100006D20122002306E000224FF0004302E051
:100520006FF0010253101AEB06004CEB085110EB70
:100530000A0041EB0B01BDE8F04D00F074B8C1F3C7
:100540000A52C1F3130140F2FF3341F480119A4281
:1005500002DA00200146704740F233439A42A2F289
:10056000334202DC524200F03CB800F02BB80000ED
:1005700030B5041E71F1000404DB4FF0004440422A
:1005800064EB0101141E73F1000405DB1C464FF0FF
:100590000043524263EB0403994208BF904230BDCE
:1005A000064C074D06E0E06840F0010394E80700C0
:1005B00098471034AC42F6D3FFF7BEFDF02E00088A
:1005C000102F0008202A04DB203A00FA02F1002054
:1005D00070479140C2F1200320FA03F31943904081
:1005E0007047202A04DB203A21FA02F000217047EC
:1005F00021FA02F3D040C2F120029140084319468B
:100600007047202A06DBCB17203A41FA02F043EA72
:10061000E07306E041FA02F3D040C2F120029140BB
:1006200008431946704710B5141E73F1000408DA28
:10063000401C41F1000192185B411A4301D120F0A6
:10064000010010BD2DE9F04D92469B4611B1B1FA63
:1006500081F202E0B0FA80F220329046FFF7B2FF5A
:1006600004460F4640EA0A0041EA0B0153465A4647
:10067000084313D0114653EA010019D0C8F14002D3
:100680005046FFF7AEFF05460E46504659464246D5
:10069000FFF798FF084305D0012004E020463946C3
:1006A000BDE8F08D0020054346EAE0762C43374351
:1006B0000A986305E40AA0EB08000022FD0A44EA58
:1006C00047540A3002D500200146E9E70105101918
:1006D0006941DDE9084500196941BDE8F04DA2E72F
:1006E00070B504460D4602F059F9A02002F002F957
:1006F00002F094F9201202F0FDF802F08FF926467C
:10070000E11704EB11610912A4EB0121C8B202F058
:10071000F1F802F083F9281202F0ECF802F07EF909
:10072000E8B202F0E7F802F079F902F057F90A208E
:1007300002F048F870BD00BFFEE7000010B50446A7
:100740000B48844209D10121480600F0C7FE002170
:100750004FF0007000F0C2FE08E00121880600F0B2
:10076000BDFE00214FF0806000F0B8FE10BD00001B
:100770000064004010B50021837A012202FA03F1DF
:100780003D4A126842F001023B4B1A603A4A1C3261
:1007900012688A43384B1C331A60027BCAB9364A46
:1007A0000C3212688A43344B0C331A604288C38877
:1007B00042EA0343304A4032847A42F834300288B5
:1007C000838842EA03432C4A4032847A02EBC40213
:1007D0005360027B012A19D1274A0C3212680A435E
:1007E000254B0C331A604288038842EA0343224AAD
:1007F0004032847A42F83430C288838842EA034324
:100800001D4A4032847A02EBC4025360C27A3AB97C
:10081000194A121D12688A43174B1B1D1A6006E005
:10082000154A121D12680A43134B1B1D1A600289D8
:1008300032B9114A143212688A430F4B14331A60CA
:100840000289012A06D10C4A143212680A430A4B63
:1008500014331A60427B012A06D1074A1C321268FF
:100860000A43054B1C331A60034A126822F0010246
:10087000014B1A6010BD0000006600401AB14369C8
:100880000B43436102E043698B434361704730B5DA
:10089000024600200023146824F002041460146847
:1008A00044F00104146000E05B1C546804F001048F
:1008B0001CB94FF6FF74A342F6D1546804F001044A
:1008C0000CB900206CE08C79012C04D1146844F040
:1008D0008004146003E0146824F080041460CC7970
:1008E000012C04D1146844F04004146003E014683F
:1008F00024F0400414600C7A012C04D1146844F0F4
:100900002004146003E0146824F0200414604C7A7E
:10091000012C04D1146844F01004146003E014683E
:1009200024F0100414608C7A012C04D1146844F073
:100930000804146003E0146824F008041460CC7AFE
:10094000012C04D1146844F00404146003E014681A
:1009500024F0040414608C78A407CD7844EA05647C
:100960000D7944EA05444D7944EA05540D886D1E1D
:100970002C43D461146824F001041460002300E0C7
:100980005B1C546804F001041CB14FF6FF74A342D1
:10099000F6D1546804F001040CB1002000E00120FD
:1009A00030BD10B500F5D87303EB01131B6803F0DD
:1009B00004031372137A53B900F5D87303EB0113D0
:1009C0001B6840F2FF7404EA5353136009E000F51A
:1009D000D87303EB01131B686FF0604404EAD30380
:1009E000536000F5D87303EB01131B6803F0020397
:1009F000537200F5D87303EB01135B6803F00F0328
:100A0000937200F5D87303EB01135B681B0AD37470
:100A100000F5D87303EB01139B68D37200F5D8730C
:100A200003EB01139B681C0A147300F5D87303EBE6
:100A300001139B681C0C547300F5D87303EB01136E
:100A40009B681B0E937300F5D87303EB0113DB68EF
:100A5000D37300F5D87303EB0113DB681C0A14741D
:100A600000F5D87303EB0113DB681C0C547400F51C
:100A7000D87303EB0113DB681B0E937421B9C368B1
:100A800043F02003C36003E0036943F020030361E4
:100A900010BD00218171C171017241728172C172F8
:100AA0008170C17003210171022141710121018016
:100AB000704710B502460020936803F08063B3F1DD
:100AC000806F00D110E0936803F00063B3F1006F12
:100AD00001D1012008E0936803F08053B3F1805FF7
:100AE00001D1022000E00420042874D002F5C07374
:100AF00003EB00131B6803F0010402F5C07303EB62
:100B000000131C600B7A7BB94B7A0C8843EA445380
:100B100002F5C07404EB00142468234302F5C0748A
:100B200004EB0014236010E00B7A4C6843EAC40322
:100B30004C7A234302F5C07404EB00142468234369
:100B400002F5C07404EB001423608B7A03F00F03EA
:100B50008B7202F5C07303EB00135B6823F00F0484
:100B600002F5C07303EB00135C6002F5C07303EB86
:100B700000135B688C7A234302F5C07404EB001405
:100B800063608B7B1C064B7B44EA03440B7B44EA8B
:100B90000323CC7A234302F5C07404EB0014A36052
:100BA0008B7C1C064B7C44EA03440B7C44EA032305
:100BB000CC7B234302F5C07404EB0014E36002F520
:100BC000C07303EB00131B6843F0010402F5C0730C
:100BD00003EB00131C6010BD10B501200449087020
:100BE000400300F009F80021024800F013F810BD9E
:100BF000140000204400024000F0805111B103496C
:100C0000086001E0024948607047000004040240A7
:100C10000000024021B1026842F00102026004E0DB
:100C200002684FF6FE731A400260704701684FF683
:100C3000FE72114001600021016041608160C1606D
:100C40004B49884208D14A490839496841F00F01A7
:100C5000474A083A51608AE045491431884208D130
:100C600043490839496841F0F001414A083A516066
:100C70007DE03F492831884208D13D49083949681B
:100C800041F470613A4A083A516070E038493C31A9
:100C9000884208D136490839496841F47041344ADC
:100CA000083A516063E032495031884208D13049F6
:100CB0000839496841F470212D4A083A516056E0DC
:100CC0002B496431884208D129490839496841F4DF
:100CD0007001274A083A516049E025497831884235
:100CE00008D123490839496841F07061204A083A1F
:100CF00051603CE01F49884206D1011F096841F05C
:100D00000F01021F116032E01A491431884208D1E4
:100D10001849091F096841F0F001164A121F1160B5
:100D200025E014492831884208D11249091F096871
:100D300041F470610F4A121F116018E00D493C31F7
:100D4000884208D10B49091F096841F47041094ADA
:100D5000121F11600BE007495031884207D1054945
:100D6000091F096841F47021024A121F116070477F
:100D700008000240080402401AB103680B430360F4
:100D800002E003688B430360704710B500220268DD
:100D900047F6F0739A430C6A8B6823430C6923432C
:100DA0004C6923438C692343CC6923434C6A234316
:100DB0008C6A23431A430260CB6843600B688360EC
:100DC0004B68C36010BD4160704770477047704703
:100DD0007047000010B5202000F024F8012815D13C
:100DE000202000F019F82021094800F003F968B923
:100DF0000821084800F007F920B90821054800F04B
:100E00000DF903E00821034800F006F910BD0000C9
:100E100000100140001401400149086070470000C3
:100E200014040140014600200022074B1B6803EA1E
:100E30000102054B14331B680B4013B10AB10120AA
:100E400000E0002070470000000401402DE9F0415F
:100E5000024600250026002000230024002791F8E8
:100E600003C00CF00F0591F803C00CF0100CBCF19E
:100E7000000F03D091F802C04CEA050591F800C0BC
:100E8000BCF1000F31D0146800202BE04FF0010CB2
:100E90000CFA00F3B1F800C00CEA03069E4220D120
:100EA00083004FF00F0C0CFA03F7BC4305FA03FC68
:100EB0004CEA040491F803C0BCF1280F06D14FF0AE
:100EC000010C0CFA00FCC2F814C00AE091F803C04F
:100ED000BCF1480F05D14FF0010C0CFA00FCC2F830
:100EE00010C0401C0828D1D31460B1F800C0BCF178
:100EF000FF0F34DD546800202EE000F1080C4FF0A5
:100F0000010808FA0CF3B1F800C00CEA03069E428F
:100F100021D183004FF00F0C0CFA03F7BC4305FA04
:100F200003FC4CEA040491F803C0BCF1280F05D17E
:100F300000F1080C08FA0CF8C2F8148091F803C00C
:100F4000BCF1480F07D100F1080C4FF0010808FA76
:100F50000CF8C2F81080401C0828CED35460BDE8BD
:100F6000F0810000F0B50A4600230024002100258E
:100F700000F00046B6F1004F02D11D4EF16901E0CC
:100F80001B4E7168C0F3034583B200F44016B6F5FA
:100F9000401F08D121F07061154E766826F070660A
:100FA000134F7E6012E000F48016B6F5801F06D164
:100FB000032606FA05F4A14341F0706106E0460DF0
:100FC000360103FA06F6B14341F0706122B1460DD5
:100FD000360103FA06F6314300F00046B6F1004F41
:100FE00002D1034EF16101E0014E7160F0BD0000DD
:100FF000000001400246002093680B400BB1012025
:1010000000E00020704702460020D3680B400BB17F
:10101000012000E000207047416170470161704786
:1010200000BFFEE710B5244800F0CFF90446214682
:1010300022A000F05DFE4FF001211F4800F0A8F94A
:1010400018B125A000F054FE34E028491A4800F0F9
:101050009FF918B126A000F04BFE2BE02B49164853
:1010600000F096F918B12AA000F042FE22E02F49C4
:10107000114800F08DF918B12DA000F039FE19E0EB
:101080002E490D4800F084F918B12DA000F030FE73
:1010900010E02F49084800F07BF918B12DA000F0AE
:1010A00027FE07E02F49044800F072F910B12EA086
:1010B00000F01EFE10BD00000058004069326320A1
:1010C00065762069727168616E646C65722C20258A
:1010D00058210D0A000000007468652062757320B5
:1010E0006572726F72210D0A00000000000200019B
:1010F0004172626974726174696F6E206973206DE8
:10110000697373696E67210D0A0000000004000115
:10111000496E20726573706F6E736520746F206600
:10112000616C69757265210D0A00000000080001FC
:101130006F7672206572726F720D0A0000100001E6
:10114000504543206572726F72210D0A0000000045
:101150000040000174696D6F7574206572726F7262
:10116000210D0A0000800001736D6220616C6572C0
:1011700074206572726F72210D0A000010B53A4832
:1011800000F023F9044639A000F0B2FD3D49601A91
:101190008C4262D008DC6FF44030204470B10128EA
:1011A00033D007285DD134E0A0F5802040380028F6
:1011B00033D002280FD0042853D14AE000212A4816
:1011C00000F0DAF80022A021274800F014F92EA040
:1011D00000F08EFD45E001F095FC324802680068A1
:1011E000401C304B18603048815C1F4800F00CF9FF
:1011F0002E480068012804D1002281022C4800F00A
:10120000F1F82CA000F074FD2BE034A000F070FD8C
:1012100027E03BA000F06CFD23E022480068234952
:10122000096888420BDA1F4802680068401C1D4BA1
:1012300018601D48815C0C4800F0E6F805E00022CB
:101240004FF48061084800F0CDF835A000F050FD63
:1012500007E03BA000F04CFD03E040A000F048FD9B
:1012600000BF00BF10BD000000580040693263207D
:1012700065762069727168616E646C6572210D0A11
:10128000000000004000030073656E642073746109
:101290007274206269742073756363657373210DC2
:1012A0000A0000002C0000207A10002030000020EE
:1012B0000054004073656E64207468652064657630
:1012C00069636520666F7220777269746520737533
:1012D0006363657373210D0A0000000073656E641B
:1012E000207468652064657669636520666F722086
:1012F000726561642073756363657373210D0A0001
:1013000073656E6420746865206465766963652022
:1013100031302073756363657373210D0A0000001B
:1013200073656E64207468652062797465207472D8
:10133000616E736D6974696E67210D0A00000000AB
:1013400073656E64207468652062797465207472B8
:10135000616E736D69746564210D0A007265616464
:10136000207468652062797465207472616E736D93
:1013700069746564210D0A0021B1028842F480621B
:10138000028004E002884FF6FF331A400280704763
:101390000CB50246002000230193009300920B0F2E
:1013A000019321F07F41019B1BB1009B14330093FB
:1013B00003E0090C009B18330093009B1B680B4053
:1013C0000BB1012000E000200CBD10B5014600204B
:1013D000002300228B8A0A8B120443EA020424F0C1
:1013E0007F4010BD1AB183880B43838002E083885D
:1013F0008B438380704712B141F0010102E04FF648
:10140000FE731940018270470182704700BFFEE7FA
:101410007047000070B5002100230F22C47804B388
:10142000154C246804F4E064C4F5E064210AC1F1B9
:101430000403CA40447804FA03F184781440214339
:1014400009010E4C0678A155047804F01F0501240B
:10145000AC4005786D11AD0005F1E025C5F80041FF
:1014600009E0047804F01F050124AC40044D06781F
:10147000761145F8264070BD0CED00E000E400E078
:1014800080E100E002490143024A11607047000018
:101490000000FA050CED00E07047000029B1064A93
:1014A00052690243044B5A6104E0034A5269824381
:1014B000014B5A61704700000010024029B1064AF2
:1014C000D2690243044BDA6104E0034AD2698243E1
:1014D000014BDA61704700000010024029B1064A52
:1014E00012690243044B1A6104E0034A1269824301
:1014F000014B1A61704700000010024029B1064AF2
:1015000092690243044B9A6104E0034A9269824360
:10151000014B9A61704700000010024030B5002175
:101520000022002400232D4D6D6805F00C0121B12F
:10153000042905D0082923D105E0294D056022E0C2
:10154000274D05601FE0254D6D6805F47012234D91
:101550006D6805F48034022505EB92421CB9214DDB
:10156000554305600BE01D4D6D6805F400351DB158
:101570001C4D5543056002E0194D5543056002E0DE
:10158000174D056000BF00BF144D6D6805F0F001F8
:101590000909154D6B5C0568DD4045600F4D6D68B0
:1015A00005F4E061090A104D6B5C4568DD4085601B
:1015B0000A4D6D6805F46051C90A0B4D6B5C4568B6
:1015C000DD40C560054D6D6805F44041890B074D50
:1015D0006B5CC568B5FBF3F5056130BD00100240DA
:1015E00000127A0000093D000000002010000020D9
:1015F00010B50221244800F0D4F8A8B1234800888F
:10160000401C80B2214908802149085C38B1084655
:101610001E4A1288815C1C4800F0DFF804E00022BA
:101620007121194800F0C6F80121174800F0B9F8F7
:1016300010B3154800F0CEF81649174A128888549E
:101640001548008840F2FF31884202D1002012493B
:101650000880104810490988405C2A280DD10021D3
:101660000C4A0D480088401C115411460BA000F094
:101670003FFB00200849088004E007480088401C20
:101680000549088010BD0000003001401A0000200C
:101690007A0400207A00002018000020726563762A
:1016A00020646174613A2025730D0A0010B526A0EC
:1016B00001F0F8FB0221294800F073F8B0B1284886
:1016C00001680068401C264A10602648405C30B122
:1016D00025481268815C214800F07FF806E0002070
:1016E0001F49086002211D4800F058F801211B48DD
:1016F00000F057F830B3194800F06CF8C1B21B483D
:1017000002680068401C194B18601948815418463B
:10171000006840F2FF31884202D10020194608607B
:1017200014A001F0BFFB124810490968405C48B999
:101730000F4801F0B7FB0C48094A1268815C074862
:1017400000F04BF810BD00007370693220777269A9
:10175000746520497271210A0000000000380040C1
:10176000240000207A0C00207A04002020000020B1
:101770007A08002068656C6C6F207370693220698C
:101780007271000021B1028842F04002028004E040
:1017900002884FF6BF731A4002807047CA43028125
:1017A00070470246002013890B400BB1012000E076
:1017B0000020704730B5002400230C110125A540FE
:1017C000ABB21AB185881D43858002E085889D43B0
:1017D000858030BD0146888970478181704710B58A
:1017E0000022028802F441520B884C8823438C88E3
:1017F0002343CC8823430C8923434C8923438C897E
:101800002343CC8923431A430280838B4FF2FF7416
:10181000234083830B8A038210BD704710B500F00C
:1018200001F810BD0CB5002001900090334800680D
:1018300040F480303149086000BF3048006800F44F
:10184000003000900198401C0190009818B9019850
:10185000B0F5A06FF1D12948006800F4003010B154
:101860000120009001E0002000900098012843D161
:101870002348006840F010002149086008460068CD
:1018800020F0030008600846006840F0020008608D
:101890001A48406819494860084640684860084648
:1018A000406840F4806048600846406820F47C103E
:1018B00048600846406840F4E81048600846006800
:1018C00040F08070086000BF0C48006800F00070B5
:1018D0000028F9D00948406820F003000749486013
:1018E0000846406840F00200486000BF0348406876
:1018F00000F00C000828F9D10CBD000000100240D7
:10190000002002407047000010B51348006840F006
:1019100001001149086008464068104908400E4916
:101920004860084600680E4908400B4908600846B0
:10193000006820F4802008600846406820F4FE001B
:1019400048604FF41F008860FFF768FF4FF00060A9
:101950000449086010BD0000001002400000FFF8BC
:10196000FFFFF6FE08ED00E010B50121014800F090
:1019700003F810BD00040040CA430282704721B141
:10198000028842F00102028004E002884FF6FE73F2
:101990001A40028070471AB183890B43838102E0A9
:1019A00083898B4383817047002202881D4B9842B4
:1019B0000ED01D4B98420BD0B0F1804F08D01B4B7E
:1019C000984205D01A4B984202D01A4B984204D143
:1019D0004FF68F731A404B881A43174B984207D023
:1019E000164B984204D04FF6FF431A40CB881A4357
:1019F00002808B8883850B8803850A4B98420BD025
:101A0000094B984208D00E4B984205D00D4B984296
:101A100002D00D4B984201D10B7A038601238382B9
:101A200070470000002C01400034014000040040D9
:101A300000080040000C004000100040001400406E
:101A400000400140004401400048014010B540F210
:101A500025510A4800F03FF870B1084800F0F6F848
:101A600004462146054800F0F6F800BF80210348EF
:101A700000F024F80028F9D010BD00000038014023
:101A800001F40072B2F5007F00D100BFCA430280AA
:101A9000704721B1828942F40052828104E0828938
:101AA0004DF6FF731A40828170471AB1838A0B4347
:101AB000838202E0838A8B43838270470246002040
:101AC000B1F5007F00D100BF13880B400BB101209E
:101AD00000E00020704770B5024600240023002576
:101AE000002040F66A16B14200D100BFC1F3421592
:101AF00001F01F03012606FA03F3012D02D1968996
:101B0000334006E0022D02D1168A334001E0968A66
:101B100033400C12012606FA04F41688344013B13F
:101B20000CB1012000E0002070BDF0B50346002498
:101B300000260025002040F66A17B94200D100BFF8
:101B40001846C1F3421401F01F06012707FA06F5F3
:101B5000012C01D10C3004E0022C01D1103000E046
:101B600014301AB107682F43076002E00768AF43DB
:101B70000760F0BD2DE9F04786B005460E4600240B
:101B8000A24600BFA1460027B08900B100BF2F4682
:101B90002C8A4CF6FF700440F08804432C82AC89F8
:101BA0004EF6F3100440B088318908437189084328
:101BB0000443AC81AC8A4FF6FF400440B089044333
:101BC000AC8201A8FFF7AAFC1F48874202D1DDF8CA
:101BD00010A001E0DDF80CA0A88900F4004040B19D
:101BE0000AEBCA0000EB0A1031684900B0FBF1F8BB
:101BF00007E00AEBCA0000EB0A1031688900B0FB6D
:101C0000F1F86420B8FBF0F004012009642101FB25
:101C10001089A88900F4004040B1322000EBC900CF
:101C2000B0FBF1F000F00700044308E0322000EBC5
:101C300009106421B0FBF1F000F00F0004432C8187
:101C400006B0BDE8F08700000038014001468888F2
:101C5000C0F308007047C1F308028280704700009B
:101C600010B50D4800680D49096888420DDA0A4828
:101C700001680068401C084A10600948405C094936
:101C8000C8720948FEF715FF04E00022012106484A
:101C9000FEF7F4FD10BD00003C00002040000020D5
:101CA0007C1800207C1A00200064004010B586B02B
:101CB00001AA00210848FEF774FE002406E00DF199
:101CC0000F00015D05A001F0EDF8641C9DF80E0009
:101CD000A042F4DC06B010BD00640040726563767B
:101CE00020646174613A2025630D0A0000BFFEE79D
:101CF0000FB4054B10B503A9044A029800F0ECF8A4
:101D000010BC5DF814FB0000A1280008440000206E
:101D100037B514460846064B6A46214600F0DCF803
:101D200004466946002000F06EFC20463EBD0000DF
:101D30000726000802E008C8121F08C1002AFAD1CD
:101D400070477047002001E001C1121F002AFBD13B
:101D5000704700002DE9FF5F82B00021DDE904300B
:101D6000020DDDF840B0034318D044F61050A2F243
:101D7000FF3242431514119801281FD0A5EB0B0028
:101D8000401C5FEA000A4FF000064E4FDFF8389122
:101D9000B046504615D5CAF1000413E0119801244D
:101DA0004AA3012801D16FEA0B010298119AC0E9F8
:101DB0000031C0E9024206B0BDE8F09FCBF100005F
:101DC000DFE704460021404A491842EB0450CDE9C0
:101DD000001012E0E00707D032463B464046494635
:101DE000FEF7CCFA8046894632463B4610461946F5
:101DF000FEF7C4FA06460F466410002CEAD1DDE96E
:101E00000401DDE90023BAF1000F06DAFEF7B6FAA5
:101E100042464B46FEF7B2FA05E0FEF721FB42468A
:101E20004B46FEF71DFB04460E460022284BFEF7EC
:101E30009FFB03D84FF0FF30014607E00022254BFF
:101E400020463146FEF7F3F9FEF779FB102409E04E
:101E5000002C0ADB0A220023FEF7B8F9039B30327C
:101E60001A55641E50EA0102F2D1641C039AC4F1AF
:101E700011031444119A012A03D0012208430DD101
:101E80000AE0084304D000204FF0110B119072E7D4
:101E9000A3EB0B056D1E0DE05B4504DD4FF000026A
:101EA00005F1010504E003DA4FF00002A5F1010598
:101EB000002AECD002981199C0E90231C0E900452E
:101EC00079E70000000014400000F03F30000000FF
:101ED0000000F0430000E03F2DE9FF4F95B09B4626
:101EE0008946064600250FE2252877D1002427469B
:101EF000F84A0121059400E0044316F8013F203B15
:101F000001FA03F01042F7D130782A2811D06FF08F
:101F10002F033078A0F13002092A16D8059A44F030
:101F2000020402EB820203EB42021044761C05908D
:101F3000EFE759F8042B0592002A03DA504244F4E3
:101F40000054059044F00204761C30782E2816D1F7
:101F500016F8010F44F004042A280DD06FF02F0268
:101F60003078A0F13003092B09D807EB870302EB87
:101F70004303C718761CF3E759F8047B761C3078C6
:101F80006C280FD006DC4C2817D068280DD06A28A2
:101F900014D104E0742810D07A280FD10DE044F455
:101FA00000140AE044F4801401E044F44014727810
:101FB000824202D104F58014761C761C30786628A3
:101FC0000BD013DC582877D009DC002875D04528C1
:101FD000F6D04628F4D047281AD19DE118E06328AE
:101FE00035D0642879D0652812D195E1702873D056
:101FF00008DC6728F1D069286FD06E280DD06F28D3
:1020000006D1B5E073282CD0752875D0782874D007
:102010005A46179990476D1C75E1C4F30250022887
:1020200009D003280DD0D9F8001004280DD00D6078
:1020300009F1040967E1D9F80010EA17C1E9005273
:10204000F6E7D9F800100D80F2E70D70F0E719F807
:10205000041B8DF8001000208DF80100EA460120D5
:1020600003E059F804AB4FF0FF3061074FF0000177
:1020700002D40DE008F101018846B9420FDA80452B
:10208000F8DB1AF808100029F4D108E008F1010182
:1020900088468142FADB1AF808100029F6D1059823
:1020A0005B46A0EB080721463846179A00F094FAE1
:1020B000284400EB080507E04DE029E10DE01AF89F
:1020C000010B5A4617999047B8F10108F7D25B46C1
:1020D00021463846179A13E142E00A220092C4F3DF
:1020E00002524FF0000A022A08D059F804CB032A02
:1020F0004FEAEC710AD00DE029E02AE009F107016E
:1021000021F00702F2E802C1914609E00FFA8CFCC7
:102110004FEAEC71042A03D14FFA8CFC4FEAEC71C0
:10212000002907DA0A460021DCF1000C61EB02010C
:102130002D2202E0220504D52B228DF80420012255
:1021400003E0E20701D02022F7E7904659E00A2198
:1021500002E010220DE010214FF0000A00910BE088
:1021600010224FF0000A44F004040827009203E014
:1021700008224FF0000A0092C4F30252022A05D04E
:1021800059F804CB0021032A08D009E009F107011E
:1021900021F00702F2E802C1914605E01FFA8CFC2B
:1021A000042A01D10CF0FF0C4FF00008220728D5BB
:1021B000702806D0009B83F0100353EA0A0305D071
:1021C0000EE040228DF80420012208E05CEA0102C2
:1021D00006D030228DF804208DF8050002229046AA
:1021E000009B83F0080353EA0A030AD15CEA010268
:1021F00001D1620705D530228DF804204FF0010887
:102200007F1E582804D034A003900EA802900DE041
:1022100036A0F9E753466046009AFDF7D7FF84469B
:102220000398825C0298401E029002705CEA0100F2
:10223000F0D1029806A9081A00F1200A600702D519
:1022400024F4803400E00127574502DDA7EB0A00A3
:1022500000E0002000EB0A01009005984144401A7C
:102260000590E00306D45B462146179A059800F0D6
:10227000B3F90544002706E001A85A46C05D179946
:1022800090476D1C7F1C4745F6DBE0030CD55B4691
:102290002146179A059800F09FF9054404E0302084
:1022A0005A46179990476D1C0099481E00900029C6
:1022B000F5DC08E0029802995A460078491C029120
:1022C000179990476D1CBAF10001AAF1010AF1DCDF
:1022D00065E10000092801003031323334353637EA
:1022E0003839616263646566000000003031323362
:1022F0003435363738394142434445460000000002
:1023000000F058F90544761C307800287FF4ECADD5
:1023100019B02846BDE8F08F620700D4062709F1FE
:10232000070222F0070CFCE80223E14603F0004814
:102330005FEA080C02D00FF2702C0DE05FEA045C3B
:1023400002D50FF2682C07E05FEAC47C02D00FF2DE
:10235000602C01E0AFF2700C4FF0FF3823F0004327
:10236000CDF850C065280CD006DC452809D0462899
:102370001DD047283DD13DE0662818D067287ED182
:1023800038E00021112F01DB112000E0781CCDE99D
:10239000000106A90EA8FFF7DDFCDDE90F010E9A8A
:1023A00003910021009207F1010A04914DE04FF0E2
:1023B00000400097CDE9011006A90EA8FFF7CAFC5E
:1023C000DDE90F0203920E9B11990022DDF80CA0AB
:1023D0000093049211B9791C00EB010AB7EB0A00D3
:1023E00004D4C0F1FF3007F1010A0490AAEB070002
:1023F000019044E0012F00DA01270021112F01DDB7
:10240000112000E03846CDE9000106A90EA8FFF72B
:10241000A1FCDDE90F010E9A0391002104910092C5
:10242000BA4621070CD40399514500DA8A46BAF11D
:10243000010F05DD009AAAF10101515C302908D095
:10244000B84202DA10F1040F06DA0121CDE90110D9
:1024500015E0AAF10101E9E7002805DC049901442F
:102460000491AAEB000102E0411C514500DD8A46BF
:102470000499401A401C01904FF000400290200740
:1024800004D40198504501DBCDF8048000208DF87C
:102490004F0002980DF14F07B0F1004F25D02B20CF
:1024A0000E9002984FF0020800280CDA4042029089
:1024B0002D200E9007E00A210298FDF771FE3031C1
:1024C000029007F8011DB8F10001A8F10108F2DC43
:1024D00002980028EFD1791E0E980870307800F02D
:1024E000200040F0450007F8020D12A8C01B00F1C3
:1024F00007081498007800B1012000EB0A01019848
:1025000001EBE07105984144401A401E0590E0033C
:1025100006D45B462146179A059800F05DF80544FD
:102520001498007818B15A46179990476D1CE0032B
:1025300024D55B462146179A059800F04DF80544CE
:102540001CE00498002807DBDDE90301884203DD75
:102550000098405C179901E0179930205A4690473F
:10256000049805F10105401C04900198401E01905B
:1025700004D12E205A46179990476D1CBAF10001DC
:10258000AAF1010ADDDC05E017F8010B5A4617999C
:1025900090476D1CB8F10001A8F10108F4DC5B461E
:1025A0002146179A0598ABE62D0000002B0000008D
:1025B000200000002DE9F041044600251E46174684
:1025C000880404D405E039462020B0476D1C641E01
:1025D000F9D52846BDE8F0812DE9F04104460025F3
:1025E0001E469046C80301D5302700E02027880406
:1025F00004D505E041463846B0476D1C641EF9D548
:102600002846BDE8F0810A68531C0B6010707047C3
:1026100000B587B02248FEF791F804A8FEF739FA12
:1026200000208DF816008DF817008DF818008DF831
:1026300019008DF81A008DF81B0001208DF812008A
:1026400000208DF8130002208DF8140001208DF871
:1026500015003020ADF8100004A91148FEF717F955
:1026600000208DF80A008DF80B0001208DF80C0079
:102670000020ADF80000ADF80200ADF80400ADF8A0
:102680000600ADF8080001208DF80D006846FEF741
:1026900071F8012202210248FEF7F0F807B000BDF0
:1026A0000064004008B501214FF4EA10FEF75AFC1F
:1026B0004FF48070ADF8000048208DF8030003202F
:1026C0008DF8020069460748FEF7C0FB4FF4007022
:1026D000ADF8000018208DF8030069460148FEF7A8
:1026E000B5FB08BD000C014010B500F027F8FFF75E
:1026F000D9FFFFF78DFF00F001F810BD08B51420D9
:102700008DF8000002208DF8010000208DF80200F5
:1027100001208DF803006846FEF77CFE13208DF83B
:10272000000002208DF8010000208DF80200012039
:102730008DF803006846FEF76DFE08BD10B5012157
:102740000820FEF7DBFE01210846FEF7D7FE012137
:102750004806FEF7B3FE10BD10B5044621461448E6
:10276000FDF715FD2046FDF70BFD1249086000201E
:10277000114908604FF4FE6010490860002048606D
:1027800008724872012088720B4801680068401C7A
:10279000094A10600648405C0849C8720848FEF7BC
:1027A00088F9012211460648FEF768F810BD0000BE
:1027B0007C180020400000203C0000207C1A0020F3
:1027C00000640040014642F228324A434FF0E023C1
:1027D0005A6100229A6101221A6100BF4FF0E02283
:1027E000106900F001021AB100F48032002AF5D01D
:1027F00000224FF0E0231A619A617047014601EB15
:10280000C1024FF0E0235A6100229A6101221A614D
:1028100000BF4FF0E022106900F001021AB100F48D
:102820008032002AF5D000224FF0E0231A619A612D
:102830007047000000B58BB01348FEF7F7F9134856
:102840000090134801901020029032200390002045
:102850000790069004908020059000200A904FF485
:10286000005009900020089069460748FEF78DFA4D
:102870004FF48050FEF7C0F9012202210248FEF712
:102880007BFA0BB000BD0000440002400438014058
:102890004800002010B501210846FEF7FFFD10BDDD
:1028A00070B504460D46E0B200F09CF9204670BDBC
:1028B00008B54FF40060ADF8000048208DF8030023
:1028C00069460248FEF7C2FA08BD0000000C01404C
:1028D00008B54FF40060ADF8000003208DF8020049
:1028E00010208DF8030069460148FEF7AFFA08BDD5
:1028F000000C014070B504460025FFF7E9FF4FF4D6
:1029000080611548FEF788FB00BF21E004F08000DD
:1029100028B14FF400611048FEF780FB04E04FF44B
:1029200000610D48FEF778FB6006040E4FF48061ED
:102930000948FEF773FB0220FFF760FF4FF4806148
:102940000548FEF769FB0220FFF758FF681CC5B277
:10295000082DDBDB70BD0000000C014008B5012133
:102960000820FEF7CBFD4FF44060ADF800001020CA
:102970008DF8030003208DF8020069460648FEF733
:1029800065FA4FF480610448FEF748FB4FF400619C
:102990000148FEF743FB08BD000C014010B5FFF7EE
:1029A00097FF4FF400610C48FEF738FB4FF480614D
:1029B0000948FEF733FB0520FFF720FF4FF40061C5
:1029C0000548FEF729FB0520FFF718FF4FF480614B
:1029D0000148FEF721FB10BD000C014010B5FFF7C8
:1029E00077FF4FF480610C48FEF716FB4FF400614F
:1029F0000948FEF711FB4FF480610748FEF70EFB14
:102A00000520FFF7FBFE4FF400610348FEF706FBCD
:102A10000620FFF7F3FE10BD000C014010B50024A6
:102A2000FFF746FF4FF400611248FEF7F7FA012066
:102A3000FFF7E4FE4FF480610E48FEF7EFFA012045
:102A4000FFF7DCFE08E02046611CCCB2FA2803DD6B
:102A5000FFF7C4FF012010BD4FF400610548FEF7E9
:102A6000C9FA0028EFD14FF480610248FEF7D4FA8A
:102A70000020F0E7000C014010B503A421460548F2
:102A8000FDF785FB10BD000068656C6C6F207370EE
:102A9000693221007A0C002008B501211020FEF7D0
:102AA0002DFD2220ADF8000003208DF80200482003
:102AB0008DF8030069460248FEF7C8F908BD00001A
:102AC0000010014008B500F029F84820ADF80000DA
:102AD00003208DF8020010208DF80300694602489B
:102AE000FEF7B4F908BD00000014014010B500F075
:102AF0001BF8012803D108210148FEF78FFA10BD09
:102B00000014014010B500F00FF818B90821024870
:102B1000FEF782FA10BD00000014014010B501213B
:102B20002020FEF7EBFC10BD10B508210348FEF78E
:102B30006AFA08B9012010BD0020FCE7001401402A
:102B400000BFFEF7E1FE4FF4A060FEF79BFCFFF72D
:102B5000B9FFFFF7A1FF00F031F900F095F900F09F
:102B6000E1F8FFF7FBFEFFF7BFFD41F28830FFF70A
:102B700029FEFFF7BBFF43F245211420FDF7B0FD0E
:102B80000CE002210648FEF735FA28B905A0FFF748
:102B9000E3FDFFF7B7FF01E0FFF7A8FFF1E7000053
:102BA0000010014063616E0008B525208DF800001B
:102BB00003208DF8010002208DF8020001208DF81D
:102BC00003006846FEF726FC0E208DF80000012069
:102BD0008DF801008DF802008DF803006846FEF7BD
:102BE00019FC08BD01B500BF0C4800780028FBD0D7
:102BF00000200A490870012269460948FDF7B4FA25
:102C000000210848FEF706F801210648FEF7DBF828
:102C100001210448FDF7FEFF08BD0000140000205C
:102C2000480000204400024070B5044600BF0E4832
:102C300000780028FBD000200B49087021460B4883
:102C4000FDF7A5FA00210A48FDF7E4FF2046FDF74D
:102C500097FA85B229460648FEF7B5F801210448DF
:102C6000FDF7D8FF70BD00001400002048000020D0
:102C70004400024000B585B00120ADF808000020F6
:102C8000ADF80600ADF804003820ADF80C000020C7
:102C9000ADF80000ADF80E004FF48270ADF8020000
:102CA0004FF40070ADF80A000720ADF81000694637
:102CB0000648FEF794FD012260210448FEF77AFDE4
:102CC00001210248FEF75EFD05B000BD0030014065
:102CD00008B51020ADF8000003208DF80200102088
:102CE0008DF8030069460E48FEF7B0F82020ADF8D5
:102CF000000018208DF8030069460948FEF7A6F881
:102D00008020ADF8000069460548FEF79FF8402096
:102D1000ADF8000069460248FEF798F808BD0000CB
:102D20000008014010B500F019F8FFF7D1FFFFF7D8
:102D3000A1FF00F003F8FFF79FFE10BD08B52320A8
:102D40008DF8000002208DF8010001208DF80200AE
:102D50008DF803006846FEF75DFB08BD10B5012144
:102D60000846FEF7CBFB01210420FEF7C7FB01213B
:102D70000803FEF7C3FB10BD0EB501210E48FEF798
:102D8000FBFD4FF4FA60ADF8040048F69F40ADF843
:102D900000000020ADF80600ADF8020069460648C4
:102DA000FEF702FE012211460348FEF7F4FD012161
:102DB0000148FEF7E4FD0EBD0004004010B500F030
:102DC00015F8FFF7D9FF00F001F810BD08B51D2078
:102DD0008DF8000000208DF8010001208DF8020020
:102DE0008DF803006846FEF715FB08BD10B50121FC
:102DF0000220FEF763FB10BD1FB54FF41650009084
:102E00000020ADF80400ADF80600ADF80800ADF8FC
:102E10000C000C20ADF80A0069460B48FEF7AAFE2C
:102E2000012240F225510848FEF77FFE0122802151
:102E30000548FEF73AFE01210348FEF72AFE40212D
:102E40000148FEF71DFE1FBD0038014008B54FF4D4
:102E50000070ADF8000003208DF8020018208DF8F6
:102E6000030069460748FDF7F1FF4FF48060ADF8B5
:102E7000000004208DF8030069460248FDF7E6FFD4
:102E800008BD00000008014010B500F023F8FFF76E
:102E9000DDFFFFF7FFFCFFF7CDFCFFF7ADFFFFF70E
:102EA00083FE10BD0FB400B5C1B043A84090684682
:102EB000409A4299FEF72CFF6846FFF7B5FE04A042
:102EC000FFF7B2FE0020409041B05DF814FB000017
:102ED0000D0A000010B501210846FEF70FFB012185
:102EE0000420FEF70BFB01218803FEF707FB10BD52
:102EF000102F00080000002048000000341D0008CA
:102F0000582F000848000020481E0000441D0008FB
:102F1000000000000102030401020304060708097F
:102F2000020406080100000000000000000000008C
:102F30000000000000000000000000000000000091
:102F40000000000000000000000000000000000081
:082F5000000000000000000079
:0400000508000131BD
:00000001FF
