:020000040800F2
:10000000B04D002045010008CB090008C7090008D1
:10001000C9090008F106000885100008000000006A
:10002000000000000000000000000000DD0C0008DF
:100030007F08000800000000450A0008890D00083C
:100040005F0100085F0100085F0100085F01000810
:100050005F0100085F0100085F01000881080008D7
:1000600083080008850800085F0100085F01000898
:100070005F0100085F010008F50600085F01000845
:100080005F0100085F0100085F0100085F010008D0
:100090005F0100085F0100085F010008890800088F
:1000A0005F0100085F0100085F0100085F010008B0
:1000B0005F010008DD0D00085F0100085F01000816
:1000C0005F0100085F0100085F010008350B0008B0
:1000D0005F010008F90E00085F0100085F010008D9
:1000E0005F0100085F0100085F0100085F01000870
:1000F0005F0100085F0100085F0100085F01000860
:100100005F0100085F0100085F0100085F0100084F
:100110005F0100085F0100085F0100085F0100083F
:100120005F0100085F0100085F0100085F0100082F
:10013000DFF80CD000F03CFA00480047211E000810
:10014000B04D00200648804706480047FEE7FEE71E
:10015000FEE7FEE7FEE7FEE7FEE7FEE7FEE7FEE777
:100160008D0D000831010008D2B201E000F8012B2A
:10017000491EFBD270470022F6E710B513460A4627
:1001800004461946FFF7F0FF204610BD10B504469F
:1001900004E00B7800F8013B03B1491C521EF8D271
:1001A000204610BD421C10F8011B0029FBD1801A0B
:1001B000704730B50B46014600202022012409E09B
:1001C00021FA02F59D4205D303FA02F5491B04FA10
:1001D00002F52844151EA2F10102F1DC30BD2DE923
:1001E000F05F0546002092469B46884606468146BB
:1001F00040241BE0284641464746224600F0F9F9D4
:1002000053465A46C01A914110D311461846224609
:1002100000F0E0F92D1A67EB01084F462246012055
:10022000002100F0D7F917EB00094E41201EA4F180
:100230000104DFDC484631462A464346BDE8F09FCC
:100240002DE9FE4F804681EA0300C00F0C46009066
:1002500021F0004123F00045B8EB0200A94105D28E
:100260004046214690461C460B46024623F000407D
:10027000104347D0270DC7F30A00C3F30A51029079
:10028000401A019040286BDAC3F3130040F4801B3E
:100290000098924620B10023D2EB030A63EB0B0BCC
:1002A00001985946C0F14002504600F093F90646C5
:1002B0000D4650465946019A00F0ABF910EB080084
:1002C0006141002487EA115284EAE7731A4340D05F
:1002D000009A62B3019A012A4FEA075215DC001B0B
:1002E00061EB02014FF0004202EA0752CDE9004201
:1002F000001C41F5801132462B4600F0ABF903B0EB
:10030000BDE8F08F40462146F9E7001B61EB020192
:10031000001C41F5801300185B412018A2F500175E
:1003200047EB030140EAD570B6196D4111E06D0845
:100330004FEA360645EAC0754FEA0752001B61EBEB
:100340000201001C41F5801149084FEA30000019F4
:10035000514132462B4603B0BDE8F04F00F06BB977
:100360000098012240000023D0EB020263EBE0730F
:10037000009821464FEAE074B8EB000061EB0401FD
:10038000E9E783F000435BE781F0004158E72DE99E
:10039000FE4F81EA030404F0004421F00041009480
:1003A0004FF0000B23F0004350EA01045ED052EA04
:1003B00003045BD0C3F30A54C1F30A552C44A4F2DE
:1003C000F3340194A0FB0254C1F3130141F48011F2
:1003D000C3F3130343F4801301FB024400FB034EF9
:1003E000840A970A44EA815447EA8357A4FB0768C2
:1003F00002958D0A05FB07854FEA932C04FB0C54EC
:100400002705029D4FEA065847EA1637B5EB08055F
:100410006EEB070C870E920E47EA811742EA8312B1
:10042000A7FB0201B6EB0B0164EB00042B0D43EAC2
:100430000C335E1844EB1C50DA465146E7FB0201D0
:10044000C5F313044FEA0B3343EA14534FEA043263
:10045000019C43EA0603A4F10C040294009CCDE93C
:1004600000B400F0F7F803B0BDE8F08F00200146BB
:10047000F9E72DE9F04D81EA030404F0004B21F087
:10048000004514464FF0000A23F0004150EA0502EF
:1004900020D054EA01021DD0C5F30A570246C5F325
:1004A0001303C1F31300C1F30A5640F4801543F45B
:1004B0008013A7EB0608101BD64608F2FD3873EB35
:1004C000050002D308F1010801E092185B41B8F180
:1004D000000F03DA00200146BDE8F08D00204FF444
:1004E0008011064684460EE0171B73EB050705D303
:1004F000121B63EB050306434CEA010C49084FEA63
:10050000300092185B4150EA0107EDD152EA030036
:1005100012D082EA040083EA0501084305D0101BCB
:10052000AB4106D20122002306E000224FF0004337
:1005300002E06FF0010253101AEB06004CEB085179
:1005400010EB0A0041EB0B01BDE8F04D00F073B871
:10055000C1F30A52C1F3130140F2FF3341F4801199
:100560009A4202DA00200146704740F233439A4231
:10057000A2F2334202DC524200F03BB800F02AB84B
:1005800030B5041E71F1000404DB4FF0004440421A
:1005900064EB0101141E73F1000405DB1C464FF0EF
:1005A0000043524263EB0403994208BF904230BDBE
:1005B000064C074D06E0E06840F0010394E80700B0
:1005C00098471034AC42F6D3FFF7B6FDB02A0008C6
:1005D000D02A0008202A04DB203A00FA02F1002089
:1005E00070479140C2F1200320FA03F31943904071
:1005F0007047202A04DB203A21FA02F000217047DC
:1006000021FA02F3D040C2F120029140084319467A
:100610007047202A06DBCB17203A41FA02F043EA62
:10062000E07306E041FA02F3D040C2F120029140AB
:1006300008431946704710B5141E73F1000408DA18
:10064000401C41F1000192185B411A4301D120F096
:10065000010010BD2DE9F04D92469B4611B1B1FA53
:1006600081F202E0B0FA80F220329046FFF7B2FF4A
:1006700004460F4640EA0A0041EA0B0153465A4637
:10068000084313D0114653EA010019D0C8F14002C3
:100690005046FFF7AEFF05460E46504659464246C5
:1006A000FFF798FF084305D0012004E020463946B3
:1006B000BDE8F08D0020054346EAE0762C43374341
:1006C0000A986305E40AA0EB08000022FD0A44EA48
:1006D00047540A3002D500200146E9E70105101908
:1006E0006941DDE9084500196941BDE8F04DA2E71F
:1006F000FEE70000074910B501200870400300F034
:100700000DF80021044800F015F8BDE8104001F094
:100710003DBC00001400002044000240C10002D58E
:10072000024908607047024948607047040402406B
:10073000000002400029016802D041F0010102E0FE
:100740004FF6FE72114001607047000001684FF6DD
:10075000FE72114001600021016041608160C16052
:100760003149314A0839904203D1486840F00F00BE
:1007700006E02D4A1432904204D1486840F0F0005F
:1007800048607047284A2832904203D1486840F4B4
:100790007060F5E7244A3C32904203D1486840F447
:1007A0007040EDE7204A5032904203D1486840F44F
:1007B0007020E5E71C4A6432904203D1486840F457
:1007C0007000DDE7184A7832904203D1486840F063
:1007D0007060D5E7154A111F904203D1086840F0B8
:1007E0000F0006E0114A1432904204D1086840F02C
:1007F000F000086070470D4A2832904203D1086823
:1008000040F47060F5E7094A3C32904203D1086831
:1008100040F47040EDE7054A50329042EAD1086852
:1008200040F47020E5E700000800024008040240A0
:10083000002A026801D00A4300E08A430260704740
:1008400030B5036847F6F07293430C6A8A68224316
:10085000D1E904452C4322438C692243CC692243CD
:100860004C6A22438C6A22431A430260CA6842607F
:100870000A6882604968C16030BD41607047704756
:10088000704770477047000010B5202000F028F82E
:1008900001281AD1202000F01DF820210B4800F07B
:1008A00080F8002811D10A4C0821204600F080F879
:1008B00000284FF00801204603D0BDE8104000F0AA
:1008C0007EB8BDE8104000F07CB810BD00100140BB
:1008D0000014014001490860704700001404014001
:1008E000064A014600201268044B0A4014331B6874
:1008F0000B4202D0002A00D00120704700040140C2
:10090000F0B5CA78002502F00F03D20601D58A7827
:1009100013430A784FF00F0E12F0FF0F4FF0010251
:100920001CD004680F8802FA05F63740B74211D18F
:100930004FEA850C0EFA0CF724EA070703FA0CF4C9
:100940003C43CF78282F02D0482F02D002E04661E6
:1009500000E006616D1C082DE4D304600C88FF2CB8
:100960001ED944685FF0000606F1080702FA07F591
:100970000F882F40AF420FD14FEA860C0EFA0CF7CA
:10098000BC4303FA0CF73C43CF78282F00D14561D4
:10099000CF78482F00D10561761C082EE4D344603F
:1009A000F0BD0246002092680A4200D00120704744
:1009B00002460020D2680A4200D0012070474161FF
:1009C000704701617047FEE7FEE7704770B50F237F
:1009D000C47801780122F4B1144C2468457804F4F9
:1009E000E064C4F5E064240AC4F10406E3408478BA
:1009F000B5401C402C4301F1E021230181F8003473
:100A0000007800F01F018A404009800000F1E020DA
:100A1000C0F8002170BD01F01F008240480980002D
:100A200000F1E020C0F8802170BD00000CED00E076
:100A30000249084302490860704700000000FA05B7
:100A40000CED00E070470000044A0029516901D014
:100A5000014300E0814351617047000000100240F3
:100A6000044A0029D16901D0014300E08143D161EA
:100A70007047000000100240044A0029916901D02B
:100A8000014300E081439161704700000010024083
:100A900030B5224A5168224B11F00C0103D00429D1
:100AA00003D0082903D0036016E01E4913E0516803
:100AB000536801F470114FF0020413F4803F04EB0B
:100AC000914104D053689B0303D5174B02E0174BA9
:100AD00000E0144B5943016051680F2303EA1111E0
:100AE000134B5C5C0168E14041605468072505EAEE
:100AF00014241C5D21FA04F48460546805EAD424AB
:100B00001B5DD940C1605268032303EA9232084B4F
:100B10001B1F9A5CB1FBF2F1016130BD0010024075
:100B200000127A00001BB700808D5B0000093D00B9
:100B30000400002070B51E4D0221284600F066F822
:100B40001C4C88B16088401C81B261801A48415CAD
:100B500029B16188415C284600F06DF804E000226C
:100B60007121284600F059F80121284600F04EF87E
:100B7000002813D0284600F05CF8104922888854D9
:100B800020880025A0F54072FF3A00D125802088FA
:100B9000085C2A28208802D0401C208070BD0844B0
:100BA0000649457006A000F03DFB258070BD0000A1
:100BB000003001401C0000209C4500209C4100208A
:100BC0007265637620646174613A2025730D0A00B2
:100BD00002210148FFF7F5BE00080140022101484B
:100BE000FFF7EDBE000801400029018802D041F066
:100BF000400101E021F0400101807047012080F3B5
:100C000010887047002080F310887047024600204B
:100C100012890A4200D001207047090901238B4044
:100C2000002A828899B201D00A4300E08A43828078
:100C30007047808970478181704730B502884C8841
:100C400002F441530A88CD8822438C882C432243E6
:100C50000C8922434C8922438C892243CC8922432C
:100C60001A430280828B22F400628283098A018205
:100C700030BD000010B50B4C02212046FFF7C6FF27
:100C80000028F9D0FF212046FFF7D5FF012120469B
:100C9000FFF7BCFF0028F9D02046FFF7CAFFC0B21B
:100CA00010BD00000030014070B50B4C054602211C
:100CB0002046FFF7ABFF0028F9D029462046FFF772
:100CC000BAFF01212046FFF7A1FF0028F9D02046F6
:100CD000BDE87040FFF7ADBF003001407047000035
:100CE0000CB50021264801910091026842F480323F
:100CF00002604FF4A063026802F400320092019A8D
:100D0000521C0192009A12B9019A9A42F3D10268D8
:100D1000920333D5012100911A490A6842F010026A
:100D20000A600A6822F003020A600A6842F00202BE
:100D30000A604168416041684160416841F48061F6
:100D40004160416821F47C114160416841F488119F
:100D50004160016841F08071016001688901FCD542
:100D6000416821F003014160416841F002014160A6
:100D70004168C1F381010229FAD10CBD00910CBD7B
:100D80000010024000200240704700000F4810B5DC
:100D9000016841F00101016041680D4A1140416064
:100DA00001680C4A11400160016821F48021016052
:100DB000416821F4FE0141604FF41F018160FFF79B
:100DC0008FFF05494FF00060086010BD0010024021
:100DD0000000FFF8FFFFF6FE08ED00E0114910B536
:100DE0000868421C0A60B0F5FA7F02DA00F0B8FF2A
:100DF00007E0B2F57A7F02DA00F0C0FF01E00020E0
:100E000008600121084800F013F80848C17C0A294D
:100E100007D1817C491CC9B28174142901D90C21E4
:100E2000C17410BD180000200004004064100020B0
:100E3000C943018270470029018802D041F00101B5
:100E400001E021F0010101807047002A828901D070
:100E50000A4300E08A4382817047000030B502886F
:100E60001B4B1C4C98420DD0A0420BD0B0F1804FD0
:100E700008D0194DA84205D0184DA84202D0184DEF
:100E8000A84203D122F070054A882A43154DA84292
:100E900006D0154DA84203D022F44075CA882A43D3
:100EA00002808A8882850A88028598420AD0A042F8
:100EB00008D00E4A904205D00D4A904202D00D4A09
:100EC000904201D1097A01860121818230BD000062
:100ED000002C0140003401400004004000080040A4
:100EE000000C004000100040001400400040014091
:100EF000004401400048014010B5084C40F2255123
:100F0000204600F029F8002807D0204600F0B2F86B
:100F1000BDE81040C0B201F069BB10BD003801400F
:100F2000C943018070470029818902D041F40051F2
:100F300001E021F4005181817047002A828A01D0AA
:100F40000A4300E08A4382827047024600201288EA
:100F50000A4200D00120704730B501F01F02012481
:100F60000025C1F3421304FA02F2012B0FD0022B29
:100F70000FD0838A4FEA11210088134204FA01F44A
:100F800000EA040001D000B10125284630BD838964
:100F9000F0E7038AEEE710B5C1F3421301F01F0436
:100FA0000121A140012B07D0022B07D01430002AC9
:100FB000026805D00A4304E00C30F8E71030F6E789
:100FC0008A43026010BD000030B50446008A85B037
:100FD0000D464CF6FF710840E98801432182A18942
:100FE0004EF6F3100140A8882A8910436A890A4303
:100FF0001043A081A08A4FF6FF410840A989014310
:10100000A1826846FFF744FD1948844201D1039844
:1010100000E00298A189090400EBC00101EB001077
:10102000296801D5490000E08900B0FBF1F0642295
:10103000B0FBF2F109010B096FF018056B4300EBEF
:101040008300A3891D044FF0320306D503EBC000D3
:10105000B0FBF2F000F0070005E003EB0010B0FB7E
:10106000F2F000F00F000843208105B030BD000011
:10107000003801408088C0F308007047C1F30801C0
:1010800081807047FEE70000F8B5144C0546A06863
:10109000804720698047216AC5F30740C5F30726CA
:1010A00099B1626A8AB18DF800008DF801608DF8FF
:1010B0000250032168469047A06980470546606951
:1010C0008047E06880472846F8BDE1698847E169C4
:1010D00030468847E169E8B28847EDE738000020EC
:1010E0002DE9F8431A4C05461746A0688846804704
:1010F00020698047216AC5F30740C5F30726A1B1DF
:10110000626A92B18DF800008DF801608DF802508E
:10111000032168469047226A3946404690476069F5
:101120008047E0688047BDE8F883E1698847E16966
:1011300030468847E169E8B28847002505E0A069A4
:10114000804708F805006D1CADB2BD42F7D3E6E755
:1011500038000020F8B5164C05460E46A0688047BA
:1011600020698047626A45F004058AB1280C8DF831
:101170000000280A8DF801008DF802508DF80360F8
:1011800004216846904760698047E0688047F8BD61
:10119000E169C5F307408847E169C5F3072088473F
:1011A000E169E8B28847E16930468847EBE700002B
:1011B00038000020F8B51A4C05461646A0680F46C0
:1011C000804720698047626A45F004059AB1280C7F
:1011D0008DF80000280A8DF801008DF802500321D7
:1011E00068469047626A3146384690476069804752
:1011F000E0688047F8BDE169C5F307408847E169C9
:10120000C5F307208847E169E8B28847002504E074
:10121000E169785D88476D1CADB2B542F8D3E5E76A
:10122000380000200FB4054B10B503A9044A0298FA
:1012300000F0ECF810BC5DF814FB0000111D000874
:101240006000002037B514460846064B6A46214622
:1012500000F0DCF804466946002000F06EFC2046F1
:101260003EBD00003B1B000802E008C8121F08C179
:10127000002AFAD170477047002001E001C1121F17
:10128000002AFBD1704700002DE9FF5F82B00021EA
:10129000DDE90430020DDDF840B0034318D044F618
:1012A0001050A2F2FF3242431514119801281FD0AA
:1012B000A5EB0B00401C5FEA000A4FF000064E4F02
:1012C000DFF83891B046504615D5CAF1000413E056
:1012D000119801244AA3012801D16FEA0B01029859
:1012E000119AC0E90031C0E9024206B0BDE8F09FA2
:1012F000CBF10000DFE704460021404A491842EBE9
:101300000450CDE9001012E0E00707D032463B461A
:1013100040464946FFF73BF88046894632463B4601
:1013200010461946FFF733F806460F466410002CA6
:10133000EAD1DDE90401DDE90023BAF1000F06DAA4
:10134000FFF725F842464B46FFF721F805E0FFF787
:1013500090F842464B46FFF78CF804460E460022B2
:10136000284BFFF70DF903D84FF0FF30014607E097
:101370000022254B20463146FEF762FFFFF7E8F8D2
:10138000102409E0002C0ADB0A220023FEF727FFC5
:10139000039B30321A55641E50EA0102F2D1641CDC
:1013A000039AC4F111031444119A012A03D00122B3
:1013B00008430DD10AE0084304D000204FF0110B80
:1013C000119072E7A3EB0B056D1E0DE05B4504DD8C
:1013D0004FF0000205F1010504E003DA4FF00002CE
:1013E000A5F10105002AECD002981199C0E902315B
:1013F000C0E9004579E70000000014400000F03F1C
:10140000300000000000F0430000E03F2DE9FF4FF6
:1014100095B09B468946064600250FE2252877D1E0
:1014200000242746F84A0121059400E0044316F8F9
:10143000013F203B01FA03F01042F7D130782A280F
:1014400011D06FF02F033078A0F13002092A16D89E
:10145000059A44F0020402EB820203EB42021044BC
:10146000761C0590EFE759F8042B0592002A03DA61
:10147000504244F40054059044F00204761C307845
:101480002E2816D116F8010F44F004042A280DD096
:101490006FF02F023078A0F13003092B09D807EB49
:1014A000870302EB4303C718761CF3E759F8047B64
:1014B000761C30786C280FD006DC4C2817D06828B2
:1014C0000DD06A2814D104E0742810D07A280FD1E6
:1014D0000DE044F400140AE044F4801401E044F404
:1014E00040147278824202D104F58014761C761C76
:1014F000307866280BD013DC582877D009DC002818
:1015000075D04528F6D04628F4D047281AD19DE159
:1015100018E0632835D0642879D0652812D195E188
:10152000702873D008DC6728F1D069286FD06E2846
:101530000DD06F2806D1B5E073282CD0752875D052
:10154000782874D05A46179990476D1C75E1C4F3FA
:101550000250022809D003280DD0D9F80010042821
:101560000DD00D6009F1040967E1D9F80010EA1700
:10157000C1E90052F6E7D9F800100D80F2E70D70CE
:10158000F0E719F8041B8DF8001000208DF8010019
:10159000EA46012003E059F804AB4FF0FF30610741
:1015A0004FF0000102D40DE008F101018846B94274
:1015B0000FDA8045F8DB1AF808100029F4D108E0AA
:1015C00008F1010188468142FADB1AF80810002967
:1015D000F6D105985B46A0EB080721463846179AD6
:1015E00000F094FA284400EB080507E04DE029E1FB
:1015F0000DE01AF8010B5A4617999047B8F1010807
:10160000F7D25B4621463846179A13E142E00A2298
:101610000092C4F302524FF0000A022A08D059F88F
:1016200004CB032A4FEAEC710AD00DE029E02AE04E
:1016300009F1070121F00702F2E802C1914609E031
:101640000FFA8CFC4FEAEC71042A03D14FFA8CFCA0
:101650004FEAEC71002907DA0A460021DCF1000CA0
:1016600061EB02012D2202E0220504D52B228DF828
:101670000420012203E0E20701D02022F7E7904690
:1016800059E00A2102E010220DE010214FF0000A7B
:1016900000910BE010224FF0000A44F004040827E8
:1016A000009203E008224FF0000A0092C4F30252B5
:1016B000022A05D059F804CB0021032A08D009E0FA
:1016C00009F1070121F00702F2E802C1914605E0A5
:1016D0001FFA8CFC042A01D10CF0FF0C4FF000081B
:1016E000220728D5702806D0009B83F0100353EA08
:1016F0000A0305D00EE040228DF80420012208E004
:101700005CEA010206D030228DF804208DF8050035
:1017100002229046009B83F0080353EA0A030AD191
:101720005CEA010201D1620705D530228DF8042060
:101730004FF001087F1E582804D034A003900EA853
:1017400002900DE036A0F9E753466046009AFEF796
:1017500046FD84460398825C0298401E0290027007
:101760005CEA0100F0D1029806A9081A00F1200AEB
:10177000600702D524F4803400E00127574502DDDC
:10178000A7EB0A0000E0002000EB0A01009005989A
:101790004144401A0590E00306D45B462146179A5F
:1017A000059800F0B3F90544002706E001A85A4661
:1017B000C05D179990476D1C7F1C4745F6DBE00321
:1017C0000CD55B462146179A059800F09FF9054411
:1017D00004E030205A46179990476D1C0099481E26
:1017E00000900029F5DC08E0029802995A4600783A
:1017F000491C0291179990476D1CBAF10001AAF19A
:10180000010AF1DC65E100000928010030313233C2
:10181000343536373839616263646566000000002C
:101820003031323334353637383941424344454616
:101830000000000000F058F90544761C30780028BC
:101840007FF4ECAD19B02846BDE8F08F620700D4F4
:10185000062709F1070222F0070CFCE80223E14603
:1018600003F000485FEA080C02D00FF2702C0DE084
:101870005FEA045C02D50FF2682C07E05FEAC47CE3
:1018800002D00FF2602C01E0AFF2700C4FF0FF3885
:1018900023F00043CDF850C065280CD006DC452865
:1018A00009D046281DD047283DD13DE0662818D0F4
:1018B00067287ED138E00021112F01DB112000E0E4
:1018C000781CCDE9000106A90EA8FFF7DDFCDDE9D3
:1018D0000F010E9A03910021009207F1010A049171
:1018E0004DE04FF000400097CDE9011006A90EA889
:1018F000FFF7CAFCDDE90F0203920E9B119900224B
:10190000DDF80CA00093049211B9791C00EB010AD8
:10191000B7EB0A0004D4C0F1FF3007F1010A0490CC
:10192000AAEB0700019044E0012F00DA0127002113
:10193000112F01DD112000E03846CDE9000106A994
:101940000EA8FFF7A1FCDDE90F010E9A039100211B
:1019500004910092BA4621070CD40399514500DA4C
:101960008A46BAF1010F05DD009AAAF10101515C26
:10197000302908D0B84202DA10F1040F06DA01214A
:10198000CDE9011015E0AAF10101E9E7002805DC25
:10199000049901440491AAEB000102E0411C514565
:1019A00000DD8A460499401A401C01904FF0004027
:1019B0000290200704D40198504501DBCDF8048043
:1019C00000208DF84F0002980DF14F07B0F1004F45
:1019D00025D02B200E9002984FF0020800280CDA38
:1019E000404202902D200E9007E00A210298FEF757
:1019F000E0FB3031029007F8011DB8F10001A8F1B9
:101A00000108F2DC02980028EFD1791E0E980870C8
:101A1000307800F0200040F0450007F8020D12A8D1
:101A2000C01B00F107081498007800B1012000EBFA
:101A30000A01019801EBE07105984144401A401EEB
:101A40000590E00306D45B462146179A059800F0FE
:101A50005DF805441498007818B15A4617999047D4
:101A60006D1CE00324D55B462146179A059800F0CB
:101A70004DF805441CE00498002807DBDDE903016C
:101A8000884203DD0098405C179901E017993020E7
:101A90005A469047049805F10105401C04900198AE
:101AA000401E019004D12E205A46179990476D1C74
:101AB000BAF10001AAF1010ADDDC05E017F8010B1B
:101AC0005A46179990476D1CB8F10001A8F101081A
:101AD000F4DC5B462146179A0598ABE62D00000022
:101AE0002B000000200000002DE9F04104460025F5
:101AF0001E461746880404D405E039462020B04726
:101B00006D1C641EF9D52846BDE8F0812DE9F04131
:101B1000044600251E469046C80301D5302700E044
:101B20002027880404D505E041463846B0476D1C9F
:101B3000641EF9D52846BDE8F0810A68531C0B6085
:101B40001070704770B50446082802D94FF0FF3076
:101B500070BD4FF4847000EB441005461021FFF770
:101B6000F9FA2846FFF790FA0028FAD14FF40270EC
:101B700000EB44101F21FFF7EDFA0D490120A040B2
:101B80004A8882434A808A8882438A8009490020A1
:101B900021F814000649891D08554FF4427000EBE6
:101BA00044142046FFF770FA0028FAD1012070BDD6
:101BB000200000209C49002010B50C4606281ED2AB
:101BC000DFE800F003070B101418204600F042FE77
:101BD00013E0204600F0B0FD0FE02078BDE8104093
:101BE00000F064BE00F0D4FD207006E0204600F056
:101BF0006FFE02E0204600F0CEFD002010BD4FF049
:101C0000FF3010BD2DE9F0410C46002102464F1E69
:101C100008464FF498554FF4A056102A61D2DFE8D9
:101C200002F0080B17131A1E222C3643464A574E51
:101C3000535A00F064FE4BE014B1204604F1080151
:101C4000BDE8F04100F0BBBD208800F045FD3FE05D
:101C500000F055FD05E0208800F0EEFD38E000F0D2
:101C60005DFD208034E02088010A2846FFF772FAE3
:101C700021783046FFF76EFA2AE03046FFF704FA83
:101C800006462846FFF700FA06EB0020E9E716486B
:101C900082782270C27862700279A2704279E27012
:101CA00080792071617113E000F09FFE10E0204602
:101CB00000F0B0FE0CE0204600F05BFE08E020786B
:101CC000BDE8F04100F0CBBE00F083FE05E02070DF
:101CD0000020BDE8F08100F073FEC0B241B2491CA3
:101CE000F5D13846F5E700003800002042F22831EF
:101CF00048434FF0E02148610020886101220A61D9
:101D00000A69D30701D0D203FAD508618861704708
:101D100070B5074D0446C1B22846FFF7AFF98021E0
:101D20002846FFF712F90028F9D0204670BD0000C0
:101D30000038014008B501210420FEF79DFE012076
:101D4000ADF8000003208DF8020010208DF803008C
:101D500069460248FEF7D4FD08BD000000080140B6
:101D600010B500F019F8012805D1BDE81040012197
:101D70000148FEF724BE10BD0008014010B500F078
:101D80000BF8002805D1BDE8104001210148FEF7FD
:101D900018BE10BD0008014010B501210348FEF730
:101DA00007FE002800D0012010BD000000080140FF
:101DB00070B50446082802D94FF0FF3070BD6001AD
:101DC0000830FFF761F900F00F00012802D06FF032
:101DD000040070BD4FF4427000EB44100546FFF75D
:101DE00053F9132802D06FF0020070BD4FF48470D5
:101DF00000EB441006460221FFF7ACF93046FFF72E
:101E000043F90028FAD12846FFF73EF9142805D0F7
:101E10002046FFF797FE6FF0030070BD012070BDF4
:101E2000ADF5006D4FF400616846FEF7A4F9FEF7CA
:101E3000ADFF4FF4A060FEF7FBFDFFF77BFF00F066
:101E4000EBFA00F01DFB00F07BFA41F28830FFF75F
:101E50004DFFFFF793FF00F043F800F011F84FF447
:101E60007A7403A000F0AEFB2046FFF73FFFF8E7CF
:101E700068656C6C6F2075736172740D0A000000E8
:101E800070B500F013F907214FF4C850FFF762F95D
:101E9000D0214801FFF75EF903214FF4D850FFF736
:101EA00059F9002442F6087541F28836E0B205EB94
:101EB00040100221FFF74EF9E0B2314600F0ACF8D5
:101EC000641C082CF2DB70BD10B50446FEF76AF9FD
:101ED000C1B2204600F0CAFBBDE8104000F056B881
:101EE00010B50749074800F017F80749074800F000
:101EF00025F8BDE810400649064800F031B800005A
:101F0000050C0008FD0B0008D10B0008DD0B0008D4
:101F1000A90C0008750C0008054A18B111B1C2E9F6
:101F200002017047034890600348D060704700008A
:101F300038000020F7260008F9260008054A18B1E5
:101F400011B1C2E9040170470348106103485061B0
:101F50007047000038000020FD260008FB2600081E
:101F6000074A10B513889C05FDD518B111B1C2E917
:101F7000060110BD034890610348D06110BD000008
:101F800038000020F9280008FD2800082DE9F0415C
:101F90001D480178012935D11C4C617C002931D0C4
:101FA00000250570207CA4F5805600EB002006EB90
:101FB00040011748B1F80022FEF7E8F8154F00215C
:101FC0003846FEF7B7FB207C00EB002006EB400014
:101FD000B0F800123846FEF750FC01213846FEF7F3
:101FE000A9FB207C00EB002006EB4000A0F800528B
:101FF000607C401E6074207C401CC0B220740728A6
:1020000000D92574BDE8F08114000020782000205C
:102010009C4000204400024070B505464FF44270D9
:1020200000EB45100E460446FFF72EF870B9B2B229
:1020300000230121284600F0F7F80646A84205D003
:1020400029460CA000F0BEFA304670BD2046FFF7CE
:102050001BF813280BD12846FFF7AAFE04460128D7
:1020600005D029460AA000F0ADFA204670BD012037
:1020700070BD000025643A536F636B6574206F7008
:10208000656E6564206661696C65640D0A00000018
:1020900025643A536F636B6574204C697374656E85
:1020A000206661696C65640D0A000000F0B591B0AE
:1020B0003AA03DA100680B9039A00BAB00680C90D2
:1020C00038A00CAC00680D90D1E90001CDE9090100
:1020D00000200DAD0EAE03A90E900A181F5C97717B
:1020E000275C97732F5C9772375C401C97740428A9
:1020F000F3DB002009AA135C0B54401C0628FADB12
:102100000020FFF759FD03A90120FFF755FD0FA996
:102110000820FFF777FD9DF80F009DF811209DF82E
:1021200010108DE807009DF80E309DF80D209DF8E9
:102130000C101FA000F046FA9DF8150000909DF8C5
:1021400014309DF813209DF8121023A000F03AFAE5
:102150009DF81D0000909DF81C309DF81B209DF8F7
:102160001A1022A000F02EFA9DF8190000909DF898
:1021700018309DF817209DF8161021A000F022FAC3
:102180009DF8210000909DF820309DF81F209DF8BB
:102190001E1020A000F016FA11B0F0BDC0A801FE7C
:1021A000C0A80101FFFFFF00866B58466AF50000DA
:1021B0004D41433A20253032583A253032583A259D
:1021C0003032583A253032583A253032583A253094
:1021D00032580D0A000000005349503A2025642E61
:1021E00025642E25642E25640D0A00004741523ACD
:1021F0002025642E25642E25642E25640D0A0000FA
:102200005355423A2025642E25642E25642E2564DC
:102210000D0A0000444E533A2025642E25642E25D5
:10222000642E25640D0A00002DE9F8431D4617466B
:102230000E460446082803D94FF0FF30BDE8F88366
:10224000012E06D0022E0CD0042E0AD06FF004000E
:10225000F4E7042269464FF47060FEF741FF0098EE
:1022600048B169076FF00500E8D49DB1012E05D093
:10227000022E0FD106E06FF00200DFE715F0210F0C
:10228000DCD007E0A90601D52906D7D5E90601D596
:102290002906D3D52046FFF755FC600105F0F00173
:1022A0004FF0010831430830FEF754FF224E57B972
:1022B0003788781C80B2A0F57F413080F03902D198
:1022C0004FF4404030804FF48160390A00EB4410F5
:1022D000FEF740FF4FF4A160F9B200EB4410FEF7A7
:1022E00039FF4FF4847000EB441007460121FEF7DC
:1022F00031FF3846FEF7C8FE0028FAD108FA04F08C
:10230000718805F001028143A2400A437280B188BE
:102310008143B1800949002021F814000649891D34
:1023200008554FF4427000EB44152846FEF7ACFE0A
:102330000028FAD060B281E7200000209C490020EC
:1023400030B5012185B00846FEF796FB0121042037
:10235000FEF792FB01210803FEF78EFB0224ADF885
:10236000004003208DF802001020294D8DF8030055
:1023700069462846FEF7C4FA2020ADF80000182070
:102380008DF8030069462846FEF7BAFA8020ADF8BA
:10239000000069462846FEF7B3FA4020ADF8000079
:1023A00069462846FEF7ACFA02212846FEF709FBEB
:1023B0000020ADF80600ADF80C00ADF80800ADF84F
:1023C0000400ADF80000ADF80E004FF48270ADF8D7
:1023D00002002002ADF80A0007200E4DADF81000F3
:1023E00069462846FEF729FC01212846FEF7FCFB3A
:1023F00023208DF800008DF8014001208DF80200A7
:102400008DF803006846FEF7E1FA05B030BD000024
:1024100000080140003001403EB501210220FEF7D6
:102420001FFB164C01212046FEF702FD0220ADF8ED
:10243000040048F69F40ADF800000021ADF80610FA
:10244000ADF8021069462046FEF708FD012211464C
:102450002046FEF7FAFC01212046FEF7ECFC1D2089
:102460008DF8000003208DF801008DF80200012096
:102470008DF803006846FEF7A9FA3EBD000400404F
:1024800070B501218CB00846FEF7F6FA0121042050
:10249000FEF7F2FA01218803FEF7EEFA4FF400701E
:1024A000ADF8000003258DF8025018203F4C8DF840
:1024B000030069462046FEF723FA2015ADF8000018
:1024C00004208DF8030069462046FEF719FA012121
:1024D0000846FEF7B9FA364E3046FEF737F935486A
:1024E000009035480190102002900024322007947B
:1024F0000694CDE90304802005908001CDE909040C
:10250000694630460894FEF79BF9B014FEF706F9C9
:10251000012202213046FEF78BF94FF4165000904D
:10252000244EADF808400C20ADF80440ADF80A0088
:10253000361FADF80640ADF80C4069463046FEF750
:1025400043FD012240F225513046FEF724FD0122D1
:1025500080213046FEF7F1FC01213046FEF7E3FC16
:1025600040213046FEF7DCFC25208DF800008DF878
:10257000015002208DF8020001258DF803506846B5
:10258000FEF724FA0E208DF800008DF801508DF82A
:1025900002508DF803506846FEF718FA0748447455
:1025A00004740748447404740CB070BD0008014002
:1025B00044000240043801409C4000206410002088
:1025C000782000200FB400B5C1B043AA68464299F4
:1025D000FEF738FE6846FFF777FC03A0FFF774FCB0
:1025E00041B05DF814FB00000D0A00002DE9F04138
:1025F000174C0746A4F58056217C627C881800EBB6
:10260000002006EB4000B0F8005212A02B46FFF766
:10261000D9FF0A20E0740020A0740A2D15D2207C76
:10262000617C084400EB002006EB40004755207C0D
:10263000617C084400EB002006EB4001B1F8000289
:10264000401CA1F80002BDE8F0810C20E074FAE71C
:1026500064100020696E6465782025642C20636F07
:10266000756E743A25642C20256400002DE9F04134
:10267000114C0E460746207C617C4518072D00DD75
:102680000725324629460DA0FEF7CCFD0F4805EB85
:10269000052100EB4100054632463946FDF776FD3F
:1026A000A5F80062607C401CC0B26074082801D3A9
:1026B00008206074BDE8F08178200020696E6465B0
:1026C000783A2025642C25640D0A0000781000203B
:1026D000007870470170704710B5040A00F0F001EF
:1026E0004FF4A850FEF736FD2146BDE810404FF4E8
:1026F000B850FEF72FBD704770477047704710B550
:102700004FF4A850FEF7C0FC00F0F0044FF4B850AE
:10271000FEF7BAFC04EB002080B210BD10B54FF4F8
:10272000B050FEF7B1FC04464FF4C050FEF7ACFCCD
:1027300004EB002080B210BD10B50446014606220D
:102740004FF41060FEF7CCFC042204F10E0190015E
:10275000FEF7C6FC042204F10A014FF4A060FEF764
:10276000BFFC0422A11D4FF47060FEF7B9FC0748BE
:102770000178A1744178E17481782175C078607521
:102780000248401E0078A07510BD000031000020F6
:102790000020FEF779BC70B504464FF4D850FEF720
:1027A00073FC20704FF4D050FEF76EFC05464FF4DA
:1027B000C850FEF769FC05EB0020608070BD2DE974
:1027C000F0410D460646002400F099F84FF0FF381E
:1027D000AEB10022B05C204444B2102C17DC521C75
:1027E00052B2082AF6DB002441F60877315D07EB88
:1027F0004410FEF7AFFC641C64B2082CF6DBCDB1CC
:10280000002108462A5C114449B2102902DD4046E5
:10281000BDE8F081401C40B20828F3DB002441F6FB
:102820000866295D06EB4410FEF794FC641C64B254
:10283000082CF6DB0020EBE710B5C1B2040A4FF418
:10284000B050FEF787FC2146BDE810404FF4C05061
:10285000FEF780BC10B50446014606224FF4106016
:10286000FEF7A8FC042204F10E019001FEF7A2FC81
:10287000042204F10A014FF4A060FEF79BFC04223D
:10288000A11D4FF47060FEF795FC0748A17C017014
:10289000E17C4170217D8170617DC1700249A07D24
:1028A000491E087010BD00003100002010B504461C
:1028B00030F03A0002D04FF0FF3010BD0020FEF79C
:1028C000E3FB40EA04010020FEF744FC002010BDB9
:1028D00010B5044601784FF4D850FEF73BFC6088F1
:1028E000010A4FF4C850FEF735FCA178BDE810404E
:1028F0004FF4D050FEF72EBC002070477047F0B563
:1029000085B04FF41064062269462046FEF7E8FBC6
:102910000422950102A92846FEF7E2FB4FF4A066C7
:10292000042203A93046FEF7DBFB4FF47067042254
:1029300004A93846FEF7D4FB80210020FEF70AFCEC
:102940000020FEF7A1FB062269462046FEF732FC76
:10295000042202A92846FEF72DFC042203A93046D2
:10296000FEF728FC042204A93846FEF723FC05B034
:10297000F0BD10B504464FF43850FEF785FBC0F3A8
:102980008011217000F0380001220021202811D090
:1029900038280FD0617010280ED018280CD02028AD
:1029A0000AD0A170082809D0182807D0202805D0FF
:1029B000E17010BD6270EEE7A270F3E7E27010BD47
:1029C00010B54FF43850FEF75FFBC00700D0012070
:1029D00010BD10B500244FF43850FEF755FB10F031
:1029E000300F00D00124204610BD10B54FF43854EC
:1029F0002046FEF749FB20F080012046FEF7AAFBA7
:102A00002046FEF741FB40F080012046BDE8104023
:102A1000FEF7A0BB10B502780021012A00D14021A9
:102A20004278012A06D0C2788078012A05D0012890
:102A30000BD00CE041F0380109E0012802D041F050
:102A4000080104E041F0180101E041F010014FF4E9
:102A50003850FEF77FFBBDE81040FFF7C6BF70B5EA
:102A600004464FF438563046FEF70EFB41064FF051
:102A7000FF351AD520F03800012C10D040F0380175
:102A80003046FEF767FBFFF7B0FF3046FEF7FCFA73
:102A9000012C07D000F0380038B1002070BD40F0A4
:102AA0003001EDE700F03000F6E7284670BD000089
:102AB000D02A00080000002064000000681200080E
:102AC000342B0008640000204C4D000078120008F0
:102AD00002040608000000000102030401020304CE
:102AE00006070809010000000000000000000000C7
:102AF00000C0000000000000000000000000000016
:102B000000000000000000000102573535303000A1
:102B1000F7260008F9260008FD260008FB26000815
:102B2000D1260008D52600080000000000000000A3
:042B300000000000A1
:0400000508000131BD
:00000001FF
